{
  "_format": "hh-sol-artifact-1",
  "contractName": "SP",
  "sourceName": "src/core/SP.sol",
  "abi": [
    {
      "inputs": [],
      "stateMutability": "nonpayable",
      "type": "constructor"
    },
    {
      "inputs": [
        {
          "internalType": "address",
          "name": "target",
          "type": "address"
        }
      ],
      "name": "AddressEmptyCode",
      "type": "error"
    },
    {
      "inputs": [
        {
          "internalType": "uint256",
          "name": "offendingAttestationId",
          "type": "uint256"
        }
      ],
      "name": "AttestationAlreadyRevoked",
      "type": "error"
    },
    {
      "inputs": [
        {
          "internalType": "uint256",
          "name": "offendingAttestationId",
          "type": "uint256"
        },
        {
          "internalType": "uint64",
          "name": "maxDuration",
          "type": "uint64"
        },
        {
          "internalType": "uint64",
          "name": "inputDuration",
          "type": "uint64"
        }
      ],
      "name": "AttestationInvalidDuration",
      "type": "error"
    },
    {
      "inputs": [
        {
          "internalType": "uint256",
          "name": "schemaId",
          "type": "uint256"
        },
        {
          "internalType": "uint256",
          "name": "offendingAttestationId",
          "type": "uint256"
        }
      ],
      "name": "AttestationIrrevocable",
      "type": "error"
    },
    {
      "inputs": [
        {
          "internalType": "uint256",
          "name": "nonexistentAttestationId",
          "type": "uint256"
        }
      ],
      "name": "AttestationNonexistent",
      "type": "error"
    },
    {
      "inputs": [
        {
          "internalType": "address",
          "name": "expected",
          "type": "address"
        },
        {
          "internalType": "address",
          "name": "actual",
          "type": "address"
        }
      ],
      "name": "AttestationWrongAttester",
      "type": "error"
    },
    {
      "inputs": [
        {
          "internalType": "address",
          "name": "implementation",
          "type": "address"
        }
      ],
      "name": "ERC1967InvalidImplementation",
      "type": "error"
    },
    {
      "inputs": [],
      "name": "ERC1967NonPayable",
      "type": "error"
    },
    {
      "inputs": [],
      "name": "FailedInnerCall",
      "type": "error"
    },
    {
      "inputs": [],
      "name": "InvalidDelegateSignature",
      "type": "error"
    },
    {
      "inputs": [],
      "name": "InvalidInitialization",
      "type": "error"
    },
    {
      "inputs": [],
      "name": "NotInitializing",
      "type": "error"
    },
    {
      "inputs": [
        {
          "internalType": "string",
          "name": "offendingOffchainAttestationId",
          "type": "string"
        }
      ],
      "name": "OffchainAttestationAlreadyRevoked",
      "type": "error"
    },
    {
      "inputs": [
        {
          "internalType": "string",
          "name": "existingOffchainAttestationId",
          "type": "string"
        }
      ],
      "name": "OffchainAttestationExists",
      "type": "error"
    },
    {
      "inputs": [
        {
          "internalType": "string",
          "name": "nonexistentOffchainAttestationId",
          "type": "string"
        }
      ],
      "name": "OffchainAttestationNonexistent",
      "type": "error"
    },
    {
      "inputs": [
        {
          "internalType": "address",
          "name": "owner",
          "type": "address"
        }
      ],
      "name": "OwnableInvalidOwner",
      "type": "error"
    },
    {
      "inputs": [
        {
          "internalType": "address",
          "name": "account",
          "type": "address"
        }
      ],
      "name": "OwnableUnauthorizedAccount",
      "type": "error"
    },
    {
      "inputs": [
        {
          "internalType": "uint256",
          "name": "nonexistentSchemaId",
          "type": "uint256"
        }
      ],
      "name": "SchemaNonexistent",
      "type": "error"
    },
    {
      "inputs": [
        {
          "internalType": "address",
          "name": "expected",
          "type": "address"
        },
        {
          "internalType": "address",
          "name": "actual",
          "type": "address"
        }
      ],
      "name": "SchemaWrongRegistrant",
      "type": "error"
    },
    {
      "inputs": [],
      "name": "UUPSUnauthorizedCallContext",
      "type": "error"
    },
    {
      "inputs": [
        {
          "internalType": "bytes32",
          "name": "slot",
          "type": "bytes32"
        }
      ],
      "name": "UUPSUnsupportedProxiableUUID",
      "type": "error"
    },
    {
      "anonymous": false,
      "inputs": [
        {
          "indexed": false,
          "internalType": "uint256",
          "name": "attestationId",
          "type": "uint256"
        },
        {
          "indexed": false,
          "internalType": "string",
          "name": "indexingKey",
          "type": "string"
        }
      ],
      "name": "AttestationMade",
      "type": "event"
    },
    {
      "anonymous": false,
      "inputs": [
        {
          "indexed": false,
          "internalType": "uint256",
          "name": "attestationId",
          "type": "uint256"
        },
        {
          "indexed": false,
          "internalType": "string",
          "name": "reason",
          "type": "string"
        }
      ],
      "name": "AttestationRevoked",
      "type": "event"
    },
    {
      "anonymous": false,
      "inputs": [
        {
          "indexed": false,
          "internalType": "uint64",
          "name": "version",
          "type": "uint64"
        }
      ],
      "name": "Initialized",
      "type": "event"
    },
    {
      "anonymous": false,
      "inputs": [
        {
          "indexed": false,
          "internalType": "string",
          "name": "attestationId",
          "type": "string"
        }
      ],
      "name": "OffchainAttestationMade",
      "type": "event"
    },
    {
      "anonymous": false,
      "inputs": [
        {
          "indexed": false,
          "internalType": "string",
          "name": "attestationId",
          "type": "string"
        },
        {
          "indexed": false,
          "internalType": "string",
          "name": "reason",
          "type": "string"
        }
      ],
      "name": "OffchainAttestationRevoked",
      "type": "event"
    },
    {
      "anonymous": false,
      "inputs": [
        {
          "indexed": true,
          "internalType": "address",
          "name": "previousOwner",
          "type": "address"
        },
        {
          "indexed": true,
          "internalType": "address",
          "name": "newOwner",
          "type": "address"
        }
      ],
      "name": "OwnershipTransferred",
      "type": "event"
    },
    {
      "anonymous": false,
      "inputs": [
        {
          "indexed": false,
          "internalType": "uint256",
          "name": "schemaId",
          "type": "uint256"
        }
      ],
      "name": "SchemaRegistered",
      "type": "event"
    },
    {
      "anonymous": false,
      "inputs": [
        {
          "indexed": true,
          "internalType": "address",
          "name": "implementation",
          "type": "address"
        }
      ],
      "name": "Upgraded",
      "type": "event"
    },
    {
      "inputs": [],
      "name": "UPGRADE_INTERFACE_VERSION",
      "outputs": [
        {
          "internalType": "string",
          "name": "",
          "type": "string"
        }
      ],
      "stateMutability": "view",
      "type": "function"
    },
    {
      "inputs": [
        {
          "components": [
            {
              "internalType": "uint256",
              "name": "schemaId",
              "type": "uint256"
            },
            {
              "internalType": "enum DataLocation",
              "name": "dataLocation",
              "type": "uint8"
            },
            {
              "internalType": "uint256",
              "name": "linkedAttestationId",
              "type": "uint256"
            },
            {
              "internalType": "address",
              "name": "attester",
              "type": "address"
            },
            {
              "internalType": "uint64",
              "name": "validUntil",
              "type": "uint64"
            },
            {
              "internalType": "bool",
              "name": "revoked",
              "type": "bool"
            },
            {
              "internalType": "bytes[]",
              "name": "recipients",
              "type": "bytes[]"
            },
            {
              "internalType": "bytes",
              "name": "data",
              "type": "bytes"
            }
          ],
          "internalType": "struct Attestation",
          "name": "attestation",
          "type": "tuple"
        },
        {
          "internalType": "contract IERC20",
          "name": "resolverFeesERC20Token",
          "type": "address"
        },
        {
          "internalType": "uint256",
          "name": "resolverFeesERC20Amount",
          "type": "uint256"
        },
        {
          "internalType": "string",
          "name": "indexingKey",
          "type": "string"
        },
        {
          "internalType": "bytes",
          "name": "delegateSignature",
          "type": "bytes"
        },
        {
          "internalType": "bytes",
          "name": "extraData",
          "type": "bytes"
        }
      ],
      "name": "attest",
      "outputs": [
        {
          "internalType": "uint256",
          "name": "",
          "type": "uint256"
        }
      ],
      "stateMutability": "nonpayable",
      "type": "function"
    },
    {
      "inputs": [
        {
          "components": [
            {
              "internalType": "uint256",
              "name": "schemaId",
              "type": "uint256"
            },
            {
              "internalType": "enum DataLocation",
              "name": "dataLocation",
              "type": "uint8"
            },
            {
              "internalType": "uint256",
              "name": "linkedAttestationId",
              "type": "uint256"
            },
            {
              "internalType": "address",
              "name": "attester",
              "type": "address"
            },
            {
              "internalType": "uint64",
              "name": "validUntil",
              "type": "uint64"
            },
            {
              "internalType": "bool",
              "name": "revoked",
              "type": "bool"
            },
            {
              "internalType": "bytes[]",
              "name": "recipients",
              "type": "bytes[]"
            },
            {
              "internalType": "bytes",
              "name": "data",
              "type": "bytes"
            }
          ],
          "internalType": "struct Attestation",
          "name": "attestation",
          "type": "tuple"
        },
        {
          "internalType": "string",
          "name": "indexingKey",
          "type": "string"
        },
        {
          "internalType": "bytes",
          "name": "delegateSignature",
          "type": "bytes"
        },
        {
          "internalType": "bytes",
          "name": "extraData",
          "type": "bytes"
        }
      ],
      "name": "attest",
      "outputs": [
        {
          "internalType": "uint256",
          "name": "",
          "type": "uint256"
        }
      ],
      "stateMutability": "nonpayable",
      "type": "function"
    },
    {
      "inputs": [
        {
          "components": [
            {
              "internalType": "uint256",
              "name": "schemaId",
              "type": "uint256"
            },
            {
              "internalType": "enum DataLocation",
              "name": "dataLocation",
              "type": "uint8"
            },
            {
              "internalType": "uint256",
              "name": "linkedAttestationId",
              "type": "uint256"
            },
            {
              "internalType": "address",
              "name": "attester",
              "type": "address"
            },
            {
              "internalType": "uint64",
              "name": "validUntil",
              "type": "uint64"
            },
            {
              "internalType": "bool",
              "name": "revoked",
              "type": "bool"
            },
            {
              "internalType": "bytes[]",
              "name": "recipients",
              "type": "bytes[]"
            },
            {
              "internalType": "bytes",
              "name": "data",
              "type": "bytes"
            }
          ],
          "internalType": "struct Attestation",
          "name": "attestation",
          "type": "tuple"
        },
        {
          "internalType": "uint256",
          "name": "resolverFeesETH",
          "type": "uint256"
        },
        {
          "internalType": "string",
          "name": "indexingKey",
          "type": "string"
        },
        {
          "internalType": "bytes",
          "name": "delegateSignature",
          "type": "bytes"
        },
        {
          "internalType": "bytes",
          "name": "extraData",
          "type": "bytes"
        }
      ],
      "name": "attest",
      "outputs": [
        {
          "internalType": "uint256",
          "name": "",
          "type": "uint256"
        }
      ],
      "stateMutability": "payable",
      "type": "function"
    },
    {
      "inputs": [
        {
          "components": [
            {
              "internalType": "uint256",
              "name": "schemaId",
              "type": "uint256"
            },
            {
              "internalType": "enum DataLocation",
              "name": "dataLocation",
              "type": "uint8"
            },
            {
              "internalType": "uint256",
              "name": "linkedAttestationId",
              "type": "uint256"
            },
            {
              "internalType": "address",
              "name": "attester",
              "type": "address"
            },
            {
              "internalType": "uint64",
              "name": "validUntil",
              "type": "uint64"
            },
            {
              "internalType": "bool",
              "name": "revoked",
              "type": "bool"
            },
            {
              "internalType": "bytes[]",
              "name": "recipients",
              "type": "bytes[]"
            },
            {
              "internalType": "bytes",
              "name": "data",
              "type": "bytes"
            }
          ],
          "internalType": "struct Attestation[]",
          "name": "attestations",
          "type": "tuple[]"
        },
        {
          "internalType": "contract IERC20[]",
          "name": "resolverFeesERC20Tokens",
          "type": "address[]"
        },
        {
          "internalType": "uint256[]",
          "name": "resolverFeesERC20Amount",
          "type": "uint256[]"
        },
        {
          "internalType": "string[]",
          "name": "indexingKeys",
          "type": "string[]"
        },
        {
          "internalType": "bytes",
          "name": "delegateSignature",
          "type": "bytes"
        },
        {
          "internalType": "bytes",
          "name": "extraData",
          "type": "bytes"
        }
      ],
      "name": "attestBatch",
      "outputs": [
        {
          "internalType": "uint256[]",
          "name": "attestationIds",
          "type": "uint256[]"
        }
      ],
      "stateMutability": "nonpayable",
      "type": "function"
    },
    {
      "inputs": [
        {
          "components": [
            {
              "internalType": "uint256",
              "name": "schemaId",
              "type": "uint256"
            },
            {
              "internalType": "enum DataLocation",
              "name": "dataLocation",
              "type": "uint8"
            },
            {
              "internalType": "uint256",
              "name": "linkedAttestationId",
              "type": "uint256"
            },
            {
              "internalType": "address",
              "name": "attester",
              "type": "address"
            },
            {
              "internalType": "uint64",
              "name": "validUntil",
              "type": "uint64"
            },
            {
              "internalType": "bool",
              "name": "revoked",
              "type": "bool"
            },
            {
              "internalType": "bytes[]",
              "name": "recipients",
              "type": "bytes[]"
            },
            {
              "internalType": "bytes",
              "name": "data",
              "type": "bytes"
            }
          ],
          "internalType": "struct Attestation[]",
          "name": "attestations",
          "type": "tuple[]"
        },
        {
          "internalType": "uint256[]",
          "name": "resolverFeesETH",
          "type": "uint256[]"
        },
        {
          "internalType": "string[]",
          "name": "indexingKeys",
          "type": "string[]"
        },
        {
          "internalType": "bytes",
          "name": "delegateSignature",
          "type": "bytes"
        },
        {
          "internalType": "bytes",
          "name": "extraData",
          "type": "bytes"
        }
      ],
      "name": "attestBatch",
      "outputs": [
        {
          "internalType": "uint256[]",
          "name": "attestationIds",
          "type": "uint256[]"
        }
      ],
      "stateMutability": "payable",
      "type": "function"
    },
    {
      "inputs": [
        {
          "components": [
            {
              "internalType": "uint256",
              "name": "schemaId",
              "type": "uint256"
            },
            {
              "internalType": "enum DataLocation",
              "name": "dataLocation",
              "type": "uint8"
            },
            {
              "internalType": "uint256",
              "name": "linkedAttestationId",
              "type": "uint256"
            },
            {
              "internalType": "address",
              "name": "attester",
              "type": "address"
            },
            {
              "internalType": "uint64",
              "name": "validUntil",
              "type": "uint64"
            },
            {
              "internalType": "bool",
              "name": "revoked",
              "type": "bool"
            },
            {
              "internalType": "bytes[]",
              "name": "recipients",
              "type": "bytes[]"
            },
            {
              "internalType": "bytes",
              "name": "data",
              "type": "bytes"
            }
          ],
          "internalType": "struct Attestation[]",
          "name": "attestations",
          "type": "tuple[]"
        },
        {
          "internalType": "string[]",
          "name": "indexingKeys",
          "type": "string[]"
        },
        {
          "internalType": "bytes",
          "name": "delegateSignature",
          "type": "bytes"
        },
        {
          "internalType": "bytes",
          "name": "extraData",
          "type": "bytes"
        }
      ],
      "name": "attestBatch",
      "outputs": [
        {
          "internalType": "uint256[]",
          "name": "attestationIds",
          "type": "uint256[]"
        }
      ],
      "stateMutability": "nonpayable",
      "type": "function"
    },
    {
      "inputs": [
        {
          "internalType": "string",
          "name": "offchainAttestationId",
          "type": "string"
        },
        {
          "internalType": "address",
          "name": "delegateAttester",
          "type": "address"
        },
        {
          "internalType": "bytes",
          "name": "delegateSignature",
          "type": "bytes"
        }
      ],
      "name": "attestOffchain",
      "outputs": [],
      "stateMutability": "nonpayable",
      "type": "function"
    },
    {
      "inputs": [
        {
          "internalType": "string[]",
          "name": "attestationIds",
          "type": "string[]"
        },
        {
          "internalType": "address",
          "name": "delegateAttester",
          "type": "address"
        },
        {
          "internalType": "bytes",
          "name": "delegateSignature",
          "type": "bytes"
        }
      ],
      "name": "attestOffchainBatch",
      "outputs": [],
      "stateMutability": "nonpayable",
      "type": "function"
    },
    {
      "inputs": [],
      "name": "attestationCounter",
      "outputs": [
        {
          "internalType": "uint256",
          "name": "",
          "type": "uint256"
        }
      ],
      "stateMutability": "view",
      "type": "function"
    },
    {
      "inputs": [
        {
          "internalType": "uint256",
          "name": "attestationId",
          "type": "uint256"
        }
      ],
      "name": "getAttestation",
      "outputs": [
        {
          "components": [
            {
              "internalType": "uint256",
              "name": "schemaId",
              "type": "uint256"
            },
            {
              "internalType": "enum DataLocation",
              "name": "dataLocation",
              "type": "uint8"
            },
            {
              "internalType": "uint256",
              "name": "linkedAttestationId",
              "type": "uint256"
            },
            {
              "internalType": "address",
              "name": "attester",
              "type": "address"
            },
            {
              "internalType": "uint64",
              "name": "validUntil",
              "type": "uint64"
            },
            {
              "internalType": "bool",
              "name": "revoked",
              "type": "bool"
            },
            {
              "internalType": "bytes[]",
              "name": "recipients",
              "type": "bytes[]"
            },
            {
              "internalType": "bytes",
              "name": "data",
              "type": "bytes"
            }
          ],
          "internalType": "struct Attestation",
          "name": "",
          "type": "tuple"
        }
      ],
      "stateMutability": "view",
      "type": "function"
    },
    {
      "inputs": [
        {
          "components": [
            {
              "internalType": "uint256",
              "name": "schemaId",
              "type": "uint256"
            },
            {
              "internalType": "enum DataLocation",
              "name": "dataLocation",
              "type": "uint8"
            },
            {
              "internalType": "uint256",
              "name": "linkedAttestationId",
              "type": "uint256"
            },
            {
              "internalType": "address",
              "name": "attester",
              "type": "address"
            },
            {
              "internalType": "uint64",
              "name": "validUntil",
              "type": "uint64"
            },
            {
              "internalType": "bool",
              "name": "revoked",
              "type": "bool"
            },
            {
              "internalType": "bytes[]",
              "name": "recipients",
              "type": "bytes[]"
            },
            {
              "internalType": "bytes",
              "name": "data",
              "type": "bytes"
            }
          ],
          "internalType": "struct Attestation[]",
          "name": "attestations",
          "type": "tuple[]"
        }
      ],
      "name": "getDelegatedAttestBatchHash",
      "outputs": [
        {
          "internalType": "bytes32",
          "name": "",
          "type": "bytes32"
        }
      ],
      "stateMutability": "pure",
      "type": "function"
    },
    {
      "inputs": [
        {
          "components": [
            {
              "internalType": "uint256",
              "name": "schemaId",
              "type": "uint256"
            },
            {
              "internalType": "enum DataLocation",
              "name": "dataLocation",
              "type": "uint8"
            },
            {
              "internalType": "uint256",
              "name": "linkedAttestationId",
              "type": "uint256"
            },
            {
              "internalType": "address",
              "name": "attester",
              "type": "address"
            },
            {
              "internalType": "uint64",
              "name": "validUntil",
              "type": "uint64"
            },
            {
              "internalType": "bool",
              "name": "revoked",
              "type": "bool"
            },
            {
              "internalType": "bytes[]",
              "name": "recipients",
              "type": "bytes[]"
            },
            {
              "internalType": "bytes",
              "name": "data",
              "type": "bytes"
            }
          ],
          "internalType": "struct Attestation",
          "name": "attestation",
          "type": "tuple"
        }
      ],
      "name": "getDelegatedAttestHash",
      "outputs": [
        {
          "internalType": "bytes32",
          "name": "",
          "type": "bytes32"
        }
      ],
      "stateMutability": "pure",
      "type": "function"
    },
    {
      "inputs": [
        {
          "internalType": "string[]",
          "name": "offchainAttestationIds",
          "type": "string[]"
        }
      ],
      "name": "getDelegatedOffchainAttestBatchHash",
      "outputs": [
        {
          "internalType": "bytes32",
          "name": "",
          "type": "bytes32"
        }
      ],
      "stateMutability": "pure",
      "type": "function"
    },
    {
      "inputs": [
        {
          "internalType": "string",
          "name": "offchainAttestationId",
          "type": "string"
        }
      ],
      "name": "getDelegatedOffchainAttestHash",
      "outputs": [
        {
          "internalType": "bytes32",
          "name": "",
          "type": "bytes32"
        }
      ],
      "stateMutability": "pure",
      "type": "function"
    },
    {
      "inputs": [
        {
          "internalType": "string[]",
          "name": "offchainAttestationIds",
          "type": "string[]"
        },
        {
          "internalType": "string[]",
          "name": "reasons",
          "type": "string[]"
        }
      ],
      "name": "getDelegatedOffchainRevokeBatchHash",
      "outputs": [
        {
          "internalType": "bytes32",
          "name": "",
          "type": "bytes32"
        }
      ],
      "stateMutability": "pure",
      "type": "function"
    },
    {
      "inputs": [
        {
          "internalType": "string",
          "name": "offchainAttestationId",
          "type": "string"
        },
        {
          "internalType": "string",
          "name": "reason",
          "type": "string"
        }
      ],
      "name": "getDelegatedOffchainRevokeHash",
      "outputs": [
        {
          "internalType": "bytes32",
          "name": "",
          "type": "bytes32"
        }
      ],
      "stateMutability": "pure",
      "type": "function"
    },
    {
      "inputs": [
        {
          "components": [
            {
              "internalType": "address",
              "name": "registrant",
              "type": "address"
            },
            {
              "internalType": "bool",
              "name": "revocable",
              "type": "bool"
            },
            {
              "internalType": "enum DataLocation",
              "name": "dataLocation",
              "type": "uint8"
            },
            {
              "internalType": "uint64",
              "name": "maxValidFor",
              "type": "uint64"
            },
            {
              "internalType": "contract ISPHook",
              "name": "hook",
              "type": "address"
            },
            {
              "internalType": "string",
              "name": "data",
              "type": "string"
            }
          ],
          "internalType": "struct Schema[]",
          "name": "schemas",
          "type": "tuple[]"
        }
      ],
      "name": "getDelegatedRegisterBatchHash",
      "outputs": [
        {
          "internalType": "bytes32",
          "name": "",
          "type": "bytes32"
        }
      ],
      "stateMutability": "pure",
      "type": "function"
    },
    {
      "inputs": [
        {
          "components": [
            {
              "internalType": "address",
              "name": "registrant",
              "type": "address"
            },
            {
              "internalType": "bool",
              "name": "revocable",
              "type": "bool"
            },
            {
              "internalType": "enum DataLocation",
              "name": "dataLocation",
              "type": "uint8"
            },
            {
              "internalType": "uint64",
              "name": "maxValidFor",
              "type": "uint64"
            },
            {
              "internalType": "contract ISPHook",
              "name": "hook",
              "type": "address"
            },
            {
              "internalType": "string",
              "name": "data",
              "type": "string"
            }
          ],
          "internalType": "struct Schema",
          "name": "schema",
          "type": "tuple"
        }
      ],
      "name": "getDelegatedRegisterHash",
      "outputs": [
        {
          "internalType": "bytes32",
          "name": "",
          "type": "bytes32"
        }
      ],
      "stateMutability": "pure",
      "type": "function"
    },
    {
      "inputs": [
        {
          "internalType": "uint256[]",
          "name": "attestationIds",
          "type": "uint256[]"
        },
        {
          "internalType": "string[]",
          "name": "reasons",
          "type": "string[]"
        }
      ],
      "name": "getDelegatedRevokeBatchHash",
      "outputs": [
        {
          "internalType": "bytes32",
          "name": "",
          "type": "bytes32"
        }
      ],
      "stateMutability": "pure",
      "type": "function"
    },
    {
      "inputs": [
        {
          "internalType": "uint256",
          "name": "attestationId",
          "type": "uint256"
        },
        {
          "internalType": "string",
          "name": "reason",
          "type": "string"
        }
      ],
      "name": "getDelegatedRevokeHash",
      "outputs": [
        {
          "internalType": "bytes32",
          "name": "",
          "type": "bytes32"
        }
      ],
      "stateMutability": "pure",
      "type": "function"
    },
    {
      "inputs": [
        {
          "internalType": "string",
          "name": "offchainAttestationId",
          "type": "string"
        }
      ],
      "name": "getOffchainAttestation",
      "outputs": [
        {
          "components": [
            {
              "internalType": "address",
              "name": "attester",
              "type": "address"
            },
            {
              "internalType": "uint64",
              "name": "timestamp",
              "type": "uint64"
            }
          ],
          "internalType": "struct OffchainAttestation",
          "name": "",
          "type": "tuple"
        }
      ],
      "stateMutability": "view",
      "type": "function"
    },
    {
      "inputs": [
        {
          "internalType": "uint256",
          "name": "schemaId",
          "type": "uint256"
        }
      ],
      "name": "getSchema",
      "outputs": [
        {
          "components": [
            {
              "internalType": "address",
              "name": "registrant",
              "type": "address"
            },
            {
              "internalType": "bool",
              "name": "revocable",
              "type": "bool"
            },
            {
              "internalType": "enum DataLocation",
              "name": "dataLocation",
              "type": "uint8"
            },
            {
              "internalType": "uint64",
              "name": "maxValidFor",
              "type": "uint64"
            },
            {
              "internalType": "contract ISPHook",
              "name": "hook",
              "type": "address"
            },
            {
              "internalType": "string",
              "name": "data",
              "type": "string"
            }
          ],
          "internalType": "struct Schema",
          "name": "",
          "type": "tuple"
        }
      ],
      "stateMutability": "view",
      "type": "function"
    },
    {
      "inputs": [],
      "name": "initialize",
      "outputs": [],
      "stateMutability": "nonpayable",
      "type": "function"
    },
    {
      "inputs": [],
      "name": "owner",
      "outputs": [
        {
          "internalType": "address",
          "name": "",
          "type": "address"
        }
      ],
      "stateMutability": "view",
      "type": "function"
    },
    {
      "inputs": [],
      "name": "proxiableUUID",
      "outputs": [
        {
          "internalType": "bytes32",
          "name": "",
          "type": "bytes32"
        }
      ],
      "stateMutability": "view",
      "type": "function"
    },
    {
      "inputs": [
        {
          "components": [
            {
              "internalType": "address",
              "name": "registrant",
              "type": "address"
            },
            {
              "internalType": "bool",
              "name": "revocable",
              "type": "bool"
            },
            {
              "internalType": "enum DataLocation",
              "name": "dataLocation",
              "type": "uint8"
            },
            {
              "internalType": "uint64",
              "name": "maxValidFor",
              "type": "uint64"
            },
            {
              "internalType": "contract ISPHook",
              "name": "hook",
              "type": "address"
            },
            {
              "internalType": "string",
              "name": "data",
              "type": "string"
            }
          ],
          "internalType": "struct Schema",
          "name": "schema",
          "type": "tuple"
        },
        {
          "internalType": "bytes",
          "name": "delegateSignature",
          "type": "bytes"
        }
      ],
      "name": "register",
      "outputs": [
        {
          "internalType": "uint256",
          "name": "schemaId",
          "type": "uint256"
        }
      ],
      "stateMutability": "nonpayable",
      "type": "function"
    },
    {
      "inputs": [
        {
          "components": [
            {
              "internalType": "address",
              "name": "registrant",
              "type": "address"
            },
            {
              "internalType": "bool",
              "name": "revocable",
              "type": "bool"
            },
            {
              "internalType": "enum DataLocation",
              "name": "dataLocation",
              "type": "uint8"
            },
            {
              "internalType": "uint64",
              "name": "maxValidFor",
              "type": "uint64"
            },
            {
              "internalType": "contract ISPHook",
              "name": "hook",
              "type": "address"
            },
            {
              "internalType": "string",
              "name": "data",
              "type": "string"
            }
          ],
          "internalType": "struct Schema[]",
          "name": "schemas",
          "type": "tuple[]"
        },
        {
          "internalType": "bytes",
          "name": "delegateSignature",
          "type": "bytes"
        }
      ],
      "name": "registerBatch",
      "outputs": [
        {
          "internalType": "uint256[]",
          "name": "schemaIds",
          "type": "uint256[]"
        }
      ],
      "stateMutability": "nonpayable",
      "type": "function"
    },
    {
      "inputs": [],
      "name": "renounceOwnership",
      "outputs": [],
      "stateMutability": "nonpayable",
      "type": "function"
    },
    {
      "inputs": [
        {
          "internalType": "uint256",
          "name": "attestationId",
          "type": "uint256"
        },
        {
          "internalType": "string",
          "name": "reason",
          "type": "string"
        },
        {
          "internalType": "contract IERC20",
          "name": "resolverFeesERC20Token",
          "type": "address"
        },
        {
          "internalType": "uint256",
          "name": "resolverFeesERC20Amount",
          "type": "uint256"
        },
        {
          "internalType": "bytes",
          "name": "delegateSignature",
          "type": "bytes"
        },
        {
          "internalType": "bytes",
          "name": "extraData",
          "type": "bytes"
        }
      ],
      "name": "revoke",
      "outputs": [],
      "stateMutability": "nonpayable",
      "type": "function"
    },
    {
      "inputs": [
        {
          "internalType": "uint256",
          "name": "attestationId",
          "type": "uint256"
        },
        {
          "internalType": "string",
          "name": "reason",
          "type": "string"
        },
        {
          "internalType": "uint256",
          "name": "resolverFeesETH",
          "type": "uint256"
        },
        {
          "internalType": "bytes",
          "name": "delegateSignature",
          "type": "bytes"
        },
        {
          "internalType": "bytes",
          "name": "extraData",
          "type": "bytes"
        }
      ],
      "name": "revoke",
      "outputs": [],
      "stateMutability": "payable",
      "type": "function"
    },
    {
      "inputs": [
        {
          "internalType": "uint256",
          "name": "attestationId",
          "type": "uint256"
        },
        {
          "internalType": "string",
          "name": "reason",
          "type": "string"
        },
        {
          "internalType": "bytes",
          "name": "delegateSignature",
          "type": "bytes"
        },
        {
          "internalType": "bytes",
          "name": "extraData",
          "type": "bytes"
        }
      ],
      "name": "revoke",
      "outputs": [],
      "stateMutability": "nonpayable",
      "type": "function"
    },
    {
      "inputs": [
        {
          "internalType": "uint256[]",
          "name": "attestationIds",
          "type": "uint256[]"
        },
        {
          "internalType": "string[]",
          "name": "reasons",
          "type": "string[]"
        },
        {
          "internalType": "contract IERC20[]",
          "name": "resolverFeesERC20Tokens",
          "type": "address[]"
        },
        {
          "internalType": "uint256[]",
          "name": "resolverFeesERC20Amount",
          "type": "uint256[]"
        },
        {
          "internalType": "bytes",
          "name": "delegateSignature",
          "type": "bytes"
        },
        {
          "internalType": "bytes",
          "name": "extraData",
          "type": "bytes"
        }
      ],
      "name": "revokeBatch",
      "outputs": [],
      "stateMutability": "nonpayable",
      "type": "function"
    },
    {
      "inputs": [
        {
          "internalType": "uint256[]",
          "name": "attestationIds",
          "type": "uint256[]"
        },
        {
          "internalType": "string[]",
          "name": "reasons",
          "type": "string[]"
        },
        {
          "internalType": "uint256[]",
          "name": "resolverFeesETH",
          "type": "uint256[]"
        },
        {
          "internalType": "bytes",
          "name": "delegateSignature",
          "type": "bytes"
        },
        {
          "internalType": "bytes",
          "name": "extraData",
          "type": "bytes"
        }
      ],
      "name": "revokeBatch",
      "outputs": [],
      "stateMutability": "payable",
      "type": "function"
    },
    {
      "inputs": [
        {
          "internalType": "uint256[]",
          "name": "attestationIds",
          "type": "uint256[]"
        },
        {
          "internalType": "string[]",
          "name": "reasons",
          "type": "string[]"
        },
        {
          "internalType": "bytes",
          "name": "delegateSignature",
          "type": "bytes"
        },
        {
          "internalType": "bytes",
          "name": "extraData",
          "type": "bytes"
        }
      ],
      "name": "revokeBatch",
      "outputs": [],
      "stateMutability": "nonpayable",
      "type": "function"
    },
    {
      "inputs": [
        {
          "internalType": "string",
          "name": "offchainAttestationId",
          "type": "string"
        },
        {
          "internalType": "string",
          "name": "reason",
          "type": "string"
        },
        {
          "internalType": "bytes",
          "name": "delegateSignature",
          "type": "bytes"
        }
      ],
      "name": "revokeOffchain",
      "outputs": [],
      "stateMutability": "nonpayable",
      "type": "function"
    },
    {
      "inputs": [
        {
          "internalType": "string[]",
          "name": "offchainAttestationIds",
          "type": "string[]"
        },
        {
          "internalType": "string[]",
          "name": "reasons",
          "type": "string[]"
        },
        {
          "internalType": "bytes",
          "name": "delegateSignature",
          "type": "bytes"
        }
      ],
      "name": "revokeOffchainBatch",
      "outputs": [],
      "stateMutability": "nonpayable",
      "type": "function"
    },
    {
      "inputs": [],
      "name": "schemaCounter",
      "outputs": [
        {
          "internalType": "uint256",
          "name": "",
          "type": "uint256"
        }
      ],
      "stateMutability": "view",
      "type": "function"
    },
    {
      "inputs": [
        {
          "internalType": "address",
          "name": "newOwner",
          "type": "address"
        }
      ],
      "name": "transferOwnership",
      "outputs": [],
      "stateMutability": "nonpayable",
      "type": "function"
    },
    {
      "inputs": [
        {
          "internalType": "address",
          "name": "newImplementation",
          "type": "address"
        },
        {
          "internalType": "bytes",
          "name": "data",
          "type": "bytes"
        }
      ],
      "name": "upgradeToAndCall",
      "outputs": [],
      "stateMutability": "payable",
      "type": "function"
    },
    {
      "inputs": [],
      "name": "version",
      "outputs": [
        {
          "internalType": "string",
          "name": "",
          "type": "string"
        }
      ],
      "stateMutability": "pure",
      "type": "function"
    }
  ],
  "bytecode": "0x60a0604052306080523480156200001557600080fd5b5046617a69146200002a576200002a62000030565b620000e4565b7ff0c57e16840df040f15088dc2f81fe391c3923bec73e23a9662efc9c229c6a00805468010000000000000000900460ff1615620000815760405163f92ee8a960e01b815260040160405180910390fd5b80546001600160401b0390811614620000e15780546001600160401b0319166001600160401b0390811782556040519081527fc7f505b2f371ae2175ee4913f4499e1f2633a7b5936321eed1cdaeb6115181d29060200160405180910390a15b50565b608051615d466200010e60003960008181613685015281816136ae01526137ef0152615d466000f3fe6080604052600436106102465760003560e01c80638129fc1c11610139578063cb6a3237116100b6578063e8619f371161007a578063e8619f3714610703578063e8ae5d0714610723578063f2fde38b14610743578063f32473be14610763578063fba3a63d14610783578063fde764f4146107a357600080fd5b8063cb6a32371461066e578063d2c790d214610683578063d3dc7b23146106a3578063dda1d65a146106c3578063e610921d146106e357600080fd5b8063a01fb774116100fd578063a01fb774146105bd578063ad3cb1cc146105dd578063ba97637d1461060e578063be919fb11461062e578063c438b6ac1461064e57600080fd5b80638129fc1c1461050e5780638da5cb5b14610523578063985292eb1461056a578063987193581461058a5780639f8f13c91461059d57600080fd5b80633d67fa06116101c7578063574a30661161018b578063574a3066146104595780635bb8f9e4146104795780636a67651c14610499578063715018a6146104e657806371d3e3a3146104fb57600080fd5b80633d67fa06146103c05780634f1ef286146103d3578063500ea54a146103e657806352d1902d1461040657806354fd4d501461041b57600080fd5b80631f6ef4f31161020e5780631f6ef4f314610311578063263bc92d1461033157806329be4db2146103515780632b26fb291461037e5780632c996e03146103ab57600080fd5b806313b705051461024b57806314778f501461026d5780631916749d146102a35780631ca156af146102c35780631f683ae5146102f1575b600080fd5b34801561025757600080fd5b5061026b6102663660046143cc565b6107b6565b005b34801561027957600080fd5b5061028d6102883660046146c4565b610a17565b60405161029a91906147a2565b60405180910390f35b3480156102af57600080fd5b5061026b6102be366004614841565b610cab565b3480156102cf57600080fd5b506102e36102de3660046148c5565b610d53565b60405190815260200161029a565b3480156102fd57600080fd5b5061026b61030c36600461490b565b610d92565b34801561031d57600080fd5b506102e361032c3660046149ce565b610f2c565b34801561033d57600080fd5b506102e361034c366004614a41565b610ff7565b34801561035d57600080fd5b5061037161036c366004614a7d565b611041565b60405161029a9190614c08565b34801561038a57600080fd5b5061039e610399366004614a7d565b6112bb565b60405161029a9190614c82565b3480156103b757600080fd5b506102e36113a7565b61028d6103ce366004614c95565b6113ba565b61026b6103e1366004614d66565b6115c4565b3480156103f257600080fd5b5061028d610401366004614d9f565b6115e3565b34801561041257600080fd5b506102e36118d6565b34801561042757600080fd5b5060408051808201909152600c81526b0625c605c605ac4cae8c262760a31b60208201525b60405161029a9190614e62565b34801561046557600080fd5b5061026b610474366004614e75565b6118f3565b34801561048557600080fd5b506102e3610494366004614f0e565b611a05565b3480156104a557600080fd5b506104b96104b4366004614f42565b611a23565b6040805182516001600160a01b031681526020928301516001600160401b0316928101929092520161029a565b3480156104f257600080fd5b5061026b611a95565b61026b610509366004614f83565b611aa9565b34801561051a57600080fd5b5061026b611c03565b34801561052f57600080fd5b507f9016d09d72d40fdae2fd8ceac6b6234c7706214fd39c1cd1e609a0528c199300546040516001600160a01b03909116815260200161029a565b34801561057657600080fd5b506102e361058536600461500e565b611d2c565b61026b610598366004615067565b611d55565b3480156105a957600080fd5b506102e36105b8366004615211565b611f70565b3480156105c957600080fd5b5061026b6105d8366004615259565b611f90565b3480156105e957600080fd5b5061044c604051806040016040528060058152602001640352e302e360dc1b81525081565b34801561061a57600080fd5b5061026b610629366004615294565b611ff0565b34801561063a57600080fd5b506102e36106493660046152f5565b6121be565b34801561065a57600080fd5b506102e3610669366004615329565b6121e5565b34801561067a57600080fd5b506102e3612209565b34801561068f57600080fd5b506102e361069e366004615376565b61221c565b3480156106af57600080fd5b506102e36106be366004615434565b612331565b3480156106cf57600080fd5b506102e36106de36600461548d565b612360565b3480156106ef57600080fd5b5061026b6106fe3660046154c1565b612380565b34801561070f57600080fd5b5061026b61071e36600461556d565b612572565b34801561072f57600080fd5b506102e361073e3660046155a6565b6126c3565b34801561074f57600080fd5b5061026b61075e3660046155dc565b6126e9565b34801561076f57600080fd5b5061028d61077e3660046155f9565b612727565b34801561078f57600080fd5b506102e361079e366004615664565b612993565b6102e36107b13660046156cc565b6129e6565b81513390158015906108245760006107cc612ac0565b60010160008a6000815181106107e4576107e461574d565b6020908102919091018101518252810191909152604001600020600301546001600160a01b031690506108218161081b8b8b6126c3565b87612ae4565b91505b60005b8851811015610a0457600061083a612ac0565b60010160008b84815181106108515761085161574d565b6020908102919091018101518252810191909152604001600020600301546001600160a01b031690508280156108995750836001600160a01b0316816001600160a01b031614155b156108cf5760405163a9ad200760e01b81526001600160a01b038083166004830152851660248201526044015b60405180910390fd5b600061090e8b84815181106108e6576108e661574d565b60200260200101518b85815181106109005761090061574d565b602002602001015186612b41565b905060006109348c85815181106109275761092761574d565b6020026020010151612daf565b90506001600160a01b038116156109f9576001600160a01b03811663f996156433848f88815181106109685761096861574d565b60200260200101518e89815181106109825761098261574d565b60200260200101518e8a8151811061099c5761099c61574d565b60200260200101518d6040518763ffffffff1660e01b81526004016109c696959493929190615763565b600060405180830381600087803b1580156109e057600080fd5b505af11580156109f4573d6000803e3d6000fd5b505050505b505050600101610827565b50610a0d61310d565b5050505050505050565b815160609015801590610a5557610a5588600081518110610a3a57610a3a61574d565b602002602001015160600151610a4f8a6121e5565b86612ae4565b87516001600160401b03811115610a6e57610a6e614147565b604051908082528060200260200182016040528015610a97578160200160208202803683370190505b50915060005b8851811015610c9757818015610b00575088600081518110610ac157610ac161574d565b6020026020010151606001516001600160a01b0316898281518110610ae857610ae861574d565b6020026020010151606001516001600160a01b031614155b15610b725788600081518110610b1857610b1861574d565b602002602001015160600151898281518110610b3657610b3661574d565b60200260200101516060015160405163a9ad200760e01b81526004016108c69291906001600160a01b0392831681529116602082015260400190565b600080610bb28b8481518110610b8a57610b8a61574d565b6020026020010151898581518110610ba457610ba461574d565b60200260200101518661318e565b9150915080858481518110610bc957610bc961574d565b6020026020010181815250506000610be082612daf565b90506001600160a01b03811615610c8c576001600160a01b03811663eab2ef433385858f8981518110610c1557610c1561574d565b60200260200101518f8a81518110610c2f57610c2f61574d565b60200260200101518d6040518763ffffffff1660e01b8152600401610c5996959493929190615763565b600060405180830381600087803b158015610c7357600080fd5b505af1158015610c87573d6000803e3d6000fd5b505050505b505050600101610a9d565b50610ca061310d565b509695505050505050565b338115610d0257610cff84610cc361034c888a6157ac565b85858080601f016020809104026020016040519081016040528093929190818152602001838380828437600092019190915250612ae492505050565b50825b60005b85811015610d4257610d3a878783818110610d2257610d2261574d565b9050602002810190610d3491906157b9565b84613581565b600101610d05565b50610d4b61310d565b505050505050565b6000655245564f4b4560d01b8383604051602001610d73939291906157ff565b6040516020818303038152906040528051906020012090505b92915050565b8215801590610e49576000610da5612ac0565b60008c81526001919091016020908152604091829020600301548251601f8d018390048302810183019093528b83526001600160a01b03169250610e47918391610e0b918f918f908f9081908401838280828437600092019190915250610d5392505050565b88888080601f016020809104026020016040519081016040528093929190818152602001838380828437600092019190915250612ae492505050565b505b6000610e8d8b8b8b8080601f016020809104026020016040519081016040528093929190818152602001838380828437600092019190915250879250612b41915050565b90506000610e9a8c612daf565b90506001600160a01b03811615610f16576001600160a01b03811663f996156433848f8d8d8b8b6040518863ffffffff1660e01b8152600401610ee39796959493929190615847565b600060405180830381600087803b158015610efd57600080fd5b505af1158015610f11573d6000803e3d6000fd5b505050505b610f1e61310d565b505050505050505050505050565b815160009015801590610f4a57610f4a8860600151610a4f8a611a05565b600080610f588a888561318e565b915091506000610f6782612daf565b90506001600160a01b03811615610fe1576001600160a01b03811663eab2ef433385858e8e8c6040518763ffffffff1660e01b8152600401610fae96959493929190615763565b600060405180830381600087803b158015610fc857600080fd5b505af1158015610fdc573d6000803e3d6000fd5b505050505b610fe961310d565b509998505050505050505050565b600074082a8a88aa6a8be9e8c8c869082929cbe8482a8869605b1b82604051602001611024929190615892565b604051602081830303815290604052805190602001209050919050565b61109e6040805161010081019091526000808252602082019081526020016000815260200160006001600160a01b0316815260200160006001600160401b0316815260200160001515815260200160608152602001606081525090565b6110a6612ac0565b6000838152600191820160209081526040918290208251610100810190935280548352928301549192919083019060ff1660038111156110e8576110e8614a96565b60038111156110f9576110f9614a96565b8152600282015460208083019190915260038301546001600160a01b038116604080850191909152600160a01b82046001600160401b03166060850152600160e01b90910460ff161515608084015260048401805482518185028101850190935280835260a090940193919290919060009084015b8282101561121a57838290600052602060002001805461118d906158ab565b80601f01602080910402602001604051908101604052809291908181526020018280546111b9906158ab565b80156112065780601f106111db57610100808354040283529160200191611206565b820191906000526020600020905b8154815290600101906020018083116111e957829003601f168201915b50505050508152602001906001019061116e565b505050508152602001600582018054611232906158ab565b80601f016020809104026020016040519081016040528092919081815260200182805461125e906158ab565b80156112ab5780601f10611280576101008083540402835291602001916112ab565b820191906000526020600020905b81548152906001019060200180831161128e57829003601f168201915b5050505050815250509050919050565b6112f26040805160c08101825260008082526020820181905290918201908152600060208201819052604082015260609081015290565b6112fa612ac0565b60008381526020918252604090819020815160c08101835281546001600160a01b038116825260ff600160a01b8204811615159583019590955290939192840191600160a81b90910416600381111561135557611355614a96565b600381111561136657611366614a96565b81528154600160b01b90046001600160401b0316602082015260018201546001600160a01b03166040820152600282018054606090920191611232906158ab565b60006113b1612ac0565b60040154905090565b6060600083516000141590506000876000815181106113db576113db61574d565b602002602001015160600151905081156113fc576113fc8161081b8a6121e5565b87516001600160401b0381111561141557611415614147565b60405190808252806020026020018201604052801561143e578160200160208202803683370190505b50925060005b88518110156115b0578280156114895750816001600160a01b03168982815181106114715761147161574d565b6020026020010151606001516001600160a01b031614155b156114a15781898281518110610b3657610b3661574d565b6000806114e18b84815181106114b9576114b961574d565b60200260200101518a85815181106114d3576114d361574d565b60200260200101518761318e565b91509150808684815181106114f8576114f861574d565b602002602001018181525050600061150f82612daf565b90506001600160a01b038116156115a557806001600160a01b031663b1da94638c86815181106115415761154161574d565b60200260200101516115503390565b86868d6040518663ffffffff1660e01b815260040161157294939291906158df565b6000604051808303818588803b15801561158b57600080fd5b505af115801561159f573d6000803e3d6000fd5b50505050505b505050600101611444565b506115b961310d565b505095945050505050565b6115cc61367a565b6115d58261371f565b6115df8282613727565b5050565b606083151560008a8a82816115fa576115fa61574d565b905060200281019061160c919061590c565b61161d9060808101906060016155dc565b9050811561167257611672816116366106698d8f61592c565b89898080601f016020809104026020016040519081016040528093929190818152602001838380828437600092019190915250612ae492505050565b896001600160401b0381111561168a5761168a614147565b6040519080825280602002602001820160405280156116b3578160200160208202803683370190505b50925060005b8a8110156118bf578280156117145750816001600160a01b03168c8c838181106116e5576116e561574d565b90506020028101906116f7919061590c565b6117089060808101906060016155dc565b6001600160a01b031614155b1561177b57818c8c8381811061172c5761172c61574d565b905060200281019061173e919061590c565b61174f9060808101906060016155dc565b60405163a9ad200760e01b81526001600160a01b039283166004820152911660248201526044016108c6565b60008061180e8e8e858181106117935761179361574d565b90506020028101906117a5919061590c565b6117ae90615939565b8d8d868181106117c0576117c061574d565b90506020028101906117d291906157b9565b8080601f0160208091040260200160405190810160405280939291908181526020018383808284376000920191909152508a925061318e915050565b91509150808684815181106118255761182561574d565b602002602001018181525050600061183c82612daf565b90506001600160a01b038116156118b45760405163b1da946360e01b81526001600160a01b0382169063b1da946390611881903390879087908f908f90600401615945565b600060405180830381600087803b15801561189b57600080fd5b505af11580156118af573d6000803e3d6000fd5b505050505b5050506001016116b9565b506118c861310d565b505098975050505050505050565b60006118e06137e4565b50600080516020615cf183398151915290565b80158015906119e7576000611906612ac0565b600201888860405161191992919061597e565b908152604080516020928190038301812054601f8b018490048402820184019092528981526001600160a01b0390911692506119e59183916119a9918c908c908190840183828082843760009201919091525050604080516020601f8e018190048102820181019092528c815292508c91508b9081908401838280828437600092019190915250611d2c92505050565b86868080601f016020809104026020016040519081016040528093929190818152602001838380828437600092019190915250612ae492505050565b505b6119f4878787878561382d565b6119fc61310d565b50505050505050565b6000651055151154d560d21b8260405160200161102492919061598e565b6040805180820190915260008082526020820152611a3f612ac0565b6002018383604051611a5292919061597e565b90815260408051918290036020908101832083830190925290546001600160a01b03811683526001600160401b03600160a01b9091041690820152905092915050565b611a9d613982565b611aa760006139dd565b565b8215801590611b24576000611abc612ac0565b60008b81526001919091016020908152604091829020600301548251601f8c018390048302810183019093528a83526001600160a01b03169250611b22918391610e0b918e918e908e9081908401838280828437600092019190915250610d5392505050565b505b6000611b688a8a8a8080601f016020809104026020016040519081016040528093929190818152602001838380828437600092019190915250879250612b41915050565b90506000611b758b612daf565b90506001600160a01b03811615611bee576001600160a01b03811663cf1c29bc8933858f8a8a6040518763ffffffff1660e01b8152600401611bbb959493929190615945565b6000604051808303818588803b158015611bd457600080fd5b505af1158015611be8573d6000803e3d6000fd5b50505050505b611bf661310d565b5050505050505050505050565b7ff0c57e16840df040f15088dc2f81fe391c3923bec73e23a9662efc9c229c6a008054600160401b810460ff1615906001600160401b0316600081158015611c485750825b90506000826001600160401b03166001148015611c645750303b155b905081158015611c72575080155b15611c905760405163f92ee8a960e01b815260040160405180910390fd5b845467ffffffffffffffff191660011785558315611cba57845460ff60401b1916600160401b1785555b6000611cc4612ac0565b9050611ccf33613a4e565b6001600382018190556004909101558315611d2557845460ff60401b19168555604051600181527fc7f505b2f371ae2175ee4913f4499e1f2633a7b5936321eed1cdaeb6115181d2906020015b60405180910390a15b5050505050565b60006e2922ab27a5a2afa7a32321a420a4a760891b8383604051602001610d73939291906159a7565b8151339015801590611dbd576000611d6b612ac0565b600101600089600081518110611d8357611d8361574d565b6020908102919091018101518252810191909152604001600020600301546001600160a01b03169050611dba8161081b8a8a6126c3565b91505b60005b8751811015611f67576000611dd3612ac0565b60010160008a8481518110611dea57611dea61574d565b6020908102919091018101518252810191909152604001600020600301546001600160a01b03169050828015611e325750836001600160a01b0316816001600160a01b031614155b15611e635760405163a9ad200760e01b81526001600160a01b038083166004830152851660248201526044016108c6565b6000611e948a8481518110611e7a57611e7a61574d565b60200260200101518a85815181106109005761090061574d565b90506000611ead8b85815181106109275761092761574d565b90506001600160a01b03811615611f5c57806001600160a01b031663cf1c29bc8a8681518110611edf57611edf61574d565b6020026020010151611eee3390565b858f8981518110611f0157611f0161574d565b60200260200101518c6040518663ffffffff1660e01b8152600401611f2994939291906158df565b6000604051808303818588803b158015611f4257600080fd5b505af1158015611f56573d6000803e3d6000fd5b50505050505b505050600101611dc0565b506119fc61310d565b6000672922a3a4a9aa22a960c11b826040516020016110249291906159d2565b338115611fdd57611fda84610cc388888080601f0160208091040260200160405190810160405280939291908181526020018383808284376000920191909152506121be92505050565b50825b611fe8868683613581565b610d4b61310d565b3381158015906120af576000612004612ac0565b6002018989600081811061201a5761201a61574d565b905060200281019061202c91906157b9565b60405161203a92919061597e565b908152604051908190036020019020546001600160a01b031690506120ac816120706120668b8d6157ac565b6106be8a8c6157ac565b87878080601f016020809104026020016040519081016040528093929190818152602001838380828437600092019190915250612ae492505050565b91505b60005b87811015610a045760006120c4612ac0565b6002018a8a848181106120d9576120d961574d565b90506020028101906120eb91906157b9565b6040516120f992919061597e565b908152604051908190036020019020546001600160a01b031690508280156121335750836001600160a01b0316816001600160a01b031614155b156121645760405163a9ad200760e01b81526001600160a01b038083166004830152851660248201526044016108c6565b6121b58a8a848181106121795761217961574d565b905060200281019061218b91906157b9565b8a8a8681811061219d5761219d61574d565b90506020028101906121af91906157b9565b8761382d565b506001016120b2565b60006e20aa2a22a9aa2fa7a32321a420a4a760891b82604051602001611024929190615a3e565b60006b082a8a88aa6a8be8482a886960a31b82604051602001611024929190615a57565b6000612213612ac0565b60030154905090565b600083158015906122465761224661223a60808b0160608c016155dc565b610e0b6104948c615939565b6000806122936122558c615939565b8b8b8080601f01602080910402602001604051908101604052809392919081815260200183838082843760009201919091525088925061318e915050565b9150915060006122a282612daf565b90506001600160a01b0381161561231a5760405163b1da946360e01b81526001600160a01b0382169063b1da9463906122e7903390879087908d908d90600401615945565b600060405180830381600087803b15801561230157600080fd5b505af1158015612315573d6000803e3d6000fd5b505050505b61232261310d565b509a9950505050505050505050565b6000740a48aac9e968abe9e8c8c869082929cbe8482a8869605b1b8383604051602001610d7393929190615ab5565b6000672922a3a4a9aa22a960c11b82604051602001611024929190615ae0565b81513390158015906123e8576000612396612ac0565b6001016000886000815181106123ae576123ae61574d565b6020908102919091018101518252810191909152604001600020600301546001600160a01b031690506123e58161081b89896126c3565b91505b60005b8651811015610d425760006123fe612ac0565b60010160008984815181106124155761241561574d565b6020908102919091018101518252810191909152604001600020600301546001600160a01b0316905082801561245d5750836001600160a01b0316816001600160a01b031614155b1561248e5760405163a9ad200760e01b81526001600160a01b038083166004830152851660248201526044016108c6565b60006124bf8984815181106124a5576124a561574d565b60200260200101518985815181106109005761090061574d565b905060006124d88a85815181106109275761092761574d565b90506001600160a01b03811615612567576001600160a01b03811663cf1c29bc33848d888151811061250c5761250c61574d565b60200260200101518b6040518563ffffffff1660e01b815260040161253494939291906158df565b600060405180830381600087803b15801561254e57600080fd5b505af1158015612562573d6000803e3d6000fd5b505050505b5050506001016123eb565b82158015906125e6576125e6612586612ac0565b60008a81526001919091016020908152604091829020600301548251601f8b018390048302810183019093528983526001600160a01b031691612070918c91908c908c9081908401838280828437600092019190915250610d5392505050565b600061262a8989898080601f016020809104026020016040519081016040528093929190818152602001838380828437600092019190915250879250612b41915050565b905060006126378a612daf565b90506001600160a01b038116156126af576040516333c70a6f60e21b81526001600160a01b0382169063cf1c29bc9061267c90339086908f908b908b90600401615945565b600060405180830381600087803b15801561269657600080fd5b505af11580156126aa573d6000803e3d6000fd5b505050505b6126b761310d565b50505050505050505050565b60006b0a48aac9e968abe8482a886960a31b8383604051602001610d7393929190615af9565b6126f1613982565b6001600160a01b03811661271b57604051631e4fbdf760e01b8152600060048201526024016108c6565b612724816139dd565b50565b606081151560008686828161273e5761273e61574d565b90506020028101906127509190615b12565b61275e9060208101906155dc565b905081156127ae576127a98787600081811061277c5761277c61574d565b905060200281019061278e9190615b12565b61279c9060208101906155dc565b6120706105b8898b615b28565b61284f565b3387876000816127c0576127c061574d565b90506020028101906127d29190615b12565b6127e09060208101906155dc565b6001600160a01b03161461284f57868660008181106128015761280161574d565b90506020028101906128139190615b12565b6128219060208101906155dc565b335b604051634234c8dd60e01b81526001600160a01b039283166004820152911660248201526044016108c6565b856001600160401b0381111561286757612867614147565b604051908082528060200260200182016040528015612890578160200160208202803683370190505b50925060005b86811015612980578280156128ee5750816001600160a01b03168888838181106128c2576128c261574d565b90506020028101906128d49190615b12565b6128e29060208101906155dc565b6001600160a01b031614155b1561292657818888838181106129065761290661574d565b90506020028101906129189190615b12565b6128239060208101906155dc565b61295b88888381811061293b5761293b61574d565b905060200281019061294d9190615b12565b61295690615b35565b613a5f565b84828151811061296d5761296d61574d565b6020908102919091010152600101612896565b5061298961310d565b5050949350505050565b600081158015906129b25784516129ad906119a987612360565b6129cb565b84516001600160a01b031633146129cb57845133612823565b6129d485613a5f565b91506129de61310d565b509392505050565b60008315801590612a1057612a10612a0460808c0160608d016155dc565b610e0b6104948d615939565b600080612a1f6122558d615939565b915091506000612a2e82612daf565b90506001600160a01b03811615612aa85760405163b1da946360e01b81526001600160a01b0382169063b1da9463908e90612a75903390889088908e908e90600401615945565b6000604051808303818588803b158015612a8e57600080fd5b505af1158015612aa2573d6000803e3d6000fd5b50505050505b612ab061310d565b509b9a5050505050505050505050565b7f9f5ee6fb062129ebe4f4f93ab4866ee289599fbb940712219d796d503e3bd40090565b7f19457468657265756d205369676e6564204d6573736167653a0a3332000000006000908152601c839052603c9020612b1f90849083613b92565b612b3c5760405163fdf4e6f960e01b815260040160405180910390fd5b505050565b600080612b4c612ac0565b600086815260018201602052604090206003810154919250906001600160a01b0316612b8e576040516354681a1360e01b8152600481018790526024016108c6565b83158015612ba9575060038101546001600160a01b03163314155b15612bc25760038101546001600160a01b03163361174f565b8054600090815260208381526040808320815160c08101835281546001600160a01b038116825260ff600160a01b8204811615159583019590955290939192840191600160a81b909104166003811115612c1e57612c1e614a96565b6003811115612c2f57612c2f614a96565b81528154600160b01b90046001600160401b0316602082015260018201546001600160a01b03166040820152600282018054606090920191612c70906158ab565b80601f0160208091040260200160405190810160405280929190818152602001828054612c9c906158ab565b8015612ce95780601f10612cbe57610100808354040283529160200191612ce9565b820191906000526020600020905b815481529060010190602001808311612ccc57829003601f168201915b50505050508152505090508060200151612d23578154604051638ac42f4960e01b81526004810191909152602481018890526044016108c6565b6003820154600160e01b900460ff1615612d5357604051636c61ed4360e11b8152600481018890526024016108c6565b60038201805460ff60e01b1916600160e01b1790556040517fc44d6340c50a9fd05ab3c2a2be47cd92f00ae53c38b7f1847962b80ee66640db90612d9a9089908990615a3e565b60405180910390a150549150505b9392505050565b600080612dba612ac0565b600084815260018083016020908152604080842081516101008101909252805482529283015494955092939083019060ff166003811115612dfd57612dfd614a96565b6003811115612e0e57612e0e614a96565b8152600282015460208083019190915260038301546001600160a01b038116604080850191909152600160a01b82046001600160401b03166060850152600160e01b90910460ff161515608084015260048401805482518185028101850190935280835260a090940193919290919060009084015b82821015612f2f578382906000526020600020018054612ea2906158ab565b80601f0160208091040260200160405190810160405280929190818152602001828054612ece906158ab565b8015612f1b5780601f10612ef057610100808354040283529160200191612f1b565b820191906000526020600020905b815481529060010190602001808311612efe57829003601f168201915b505050505081526020019060010190612e83565b505050508152602001600582018054612f47906158ab565b80601f0160208091040260200160405190810160405280929190818152602001828054612f73906158ab565b8015612fc05780601f10612f9557610100808354040283529160200191612fc0565b820191906000526020600020905b815481529060010190602001808311612fa357829003601f168201915b5050509190925250508151600090815260208581526040808320815160c08101835281546001600160a01b038116825260ff600160a01b8204811615159583019590955296975093959394509290840191600160a81b90910416600381111561302b5761302b614a96565b600381111561303c5761303c614a96565b81528154600160b01b90046001600160401b0316602082015260018201546001600160a01b0316604082015260028201805460609092019161307d906158ab565b80601f01602080910402602001604051908101604052809291908181526020018280546130a9906158ab565b80156130f65780601f106130cb576101008083540402835291602001916130f6565b820191906000526020600020905b8154815290600101906020018083116130d957829003601f168201915b505050919092525050506080015195945050505050565b6000613117612ac0565b60058101549091506001600160a01b0316156127245760058101546001600160a01b031663c825d8886000366040518363ffffffff1660e01b8152600401613160929190615b41565b600060405180830381600087803b15801561317a57600080fd5b505af1158015611d25573d6000803e3d6000fd5b600080600061319b612ac0565b60048101805491925060006131af83615b6b565b919050559150831580156131d0575060608601516001600160a01b03163314155b156131e05760608601513361174f565b600086604001511180156131fe57506131fc8660400151613bf4565b155b156132245785604001516040516354681a1360e01b81526004016108c691815260200190565b604086015115801590613256575060408681015160009081526001830160205220600301546001600160a01b03163314155b156132815760408681015160009081526001830160205220600301546001600160a01b03163361174f565b8551600090815260208281526040808320815160c08101835281546001600160a01b038116825260ff600160a01b8204811615159583019590955290939192840191600160a81b9091041660038111156132dd576132dd614a96565b60038111156132ee576132ee614a96565b81528154600160b01b90046001600160401b0316602082015260018201546001600160a01b0316604082015260028201805460609092019161332f906158ab565b80601f016020809104026020016040519081016040528092919081815260200182805461335b906158ab565b80156133a85780601f1061337d576101008083540402835291602001916133a8565b820191906000526020600020905b81548152906001019060200180831161338b57829003601f168201915b50505050508152505090506133c08760000151613c0c565b6133e3578651604051630e3e31b160e21b815260048101919091526024016108c6565b60608101516001600160401b0316156134635760004288608001516001600160401b03166134119190615b84565b90508082606001516001600160401b0316101561346157606082015160405163a65e02ed60e01b8152600481018690526001600160401b03918216602482015290821660448201526064016108c6565b505b6000838152600180840160209081526040909220895181559189015182820180548b949360ff19909116908360038111156134a0576134a0614a96565b0217905550604082015160028201556060820151600382018054608085015160a08601511515600160e01b0260ff60e01b196001600160401b03909216600160a01b026001600160e01b03199093166001600160a01b0390951694909417919091171691909117905560c0820151805161352491600484019160209091019061408a565b5060e082015160058201906135399082615bdf565b509050507f1832721a412644a22475e05aed6d68366bb3e1adfc4df49b6eabdad773da1044838760405161356e929190615a3e565b60405180910390a1505093519492505050565b600061358b612ac0565b905060008160020185856040516135a392919061597e565b908152602001604051809103902090506135f285858080601f016020809104026020016040519081016040528093929190818152602001838380828437600092019190915250613c2492505050565b1561361457848460405163c83e3cdf60e01b81526004016108c6929190615b41565b80546001600160e01b031916600160a01b426001600160401b0316026001600160a01b031916176001600160a01b0384161781556040517f6f0bf119c2fc55752051c1cfde5d145fdd499c7f748df7920409c72319ff602790611d1c9087908790615b41565b306001600160a01b037f000000000000000000000000000000000000000000000000000000000000000016148061370157507f00000000000000000000000000000000000000000000000000000000000000006001600160a01b03166136f5600080516020615cf1833981519152546001600160a01b031690565b6001600160a01b031614155b15611aa75760405163703e46dd60e11b815260040160405180910390fd5b612724613982565b816001600160a01b03166352d1902d6040518163ffffffff1660e01b8152600401602060405180830381865afa925050508015613781575060408051601f3d908101601f1916820190925261377e91810190615c9e565b60015b6137a957604051634c9c8ce360e01b81526001600160a01b03831660048201526024016108c6565b600080516020615cf183398151915281146137da57604051632a87526960e21b8152600481018290526024016108c6565b612b3c8383613c6d565b306001600160a01b037f00000000000000000000000000000000000000000000000000000000000000001614611aa75760405163703e46dd60e11b815260040160405180910390fd5b6000613837612ac0565b9050600081600201878760405161384f92919061597e565b9081526020016040518091039020905061389e87878080601f016020809104026020016040519081016040528093929190818152602001838380828437600092019190915250613c2492505050565b6138bf57868660405163500328cd60e11b81526004016108c6929190615b41565b821580156138d7575080546001600160a01b03163314155b156138ed5780546001600160a01b03163361174f565b8054600160a01b90046001600160401b031660010361392357868660405163050338e960e51b81526004016108c6929190615b41565b805467ffffffffffffffff60a01b1916600160a01b1781556040517f8cdef7ac4262df432ef960b4d902483c56118d54647a70746d99abc05cb970ba90613971908990899089908990615cb7565b60405180910390a150505050505050565b336139b47f9016d09d72d40fdae2fd8ceac6b6234c7706214fd39c1cd1e609a0528c199300546001600160a01b031690565b6001600160a01b031614611aa75760405163118cdaa760e01b81523360048201526024016108c6565b7f9016d09d72d40fdae2fd8ceac6b6234c7706214fd39c1cd1e609a0528c19930080546001600160a01b031981166001600160a01b03848116918217845560405192169182907f8be0079c531659141344cd1fd0a4f28419497f9722a3daafe3b4186f6b6457e090600090a3505050565b613a56613cc3565b61272481613d0c565b600080613a6a612ac0565b6003810180549192506000613a7e83615b6b565b909155506000818152602083815260409182902086518154928801511515600160a01b026001600160a81b03199093166001600160a01b0390911617919091178082559186015192945085929091829060ff60a81b1916600160a81b836003811115613aec57613aec614a96565b02179055506060820151815467ffffffffffffffff60b01b1916600160b01b6001600160401b039092169190910217815560808201516001820180546001600160a01b0319166001600160a01b0390921691909117905560a08201516002820190613b579082615bdf565b50506040518381527e84a511eb95d20783ca15f4a700e3ebae82c5a3b891ae7910bbd966695845bf915060200160405180910390a150919050565b6000806000613ba18585613d14565b5090925090506000816003811115613bbb57613bbb614a96565b148015613bd95750856001600160a01b0316826001600160a01b0316145b80613bea5750613bea868686613d61565b9695505050505050565b600080613bff612ac0565b6004015490921092915050565b600080613c17612ac0565b6003015490921092915050565b600080613c2f612ac0565b90508060020183604051613c439190615cde565b908152604051908190036020019020546001600160401b03600160a01b9091041615159392505050565b613c7682613e3c565b6040516001600160a01b038316907fbc7cd75a20ee27fd9adebab32041f755214dbc6bffa90cc0225b39da2e5c2d3b90600090a2805115613cbb57612b3c8282613ea1565b6115df613f17565b7ff0c57e16840df040f15088dc2f81fe391c3923bec73e23a9662efc9c229c6a0054600160401b900460ff16611aa757604051631afcd79f60e31b815260040160405180910390fd5b6126f1613cc3565b60008060008351604103613d4e5760208401516040850151606086015160001a613d4088828585613f36565b955095509550505050613d5a565b50508151600091506002905b9250925092565b6000806000856001600160a01b03168585604051602401613d83929190615a3e565b60408051601f198184030181529181526020820180516001600160e01b0316630b135d3f60e11b17905251613db89190615cde565b600060405180830381855afa9150503d8060008114613df3576040519150601f19603f3d011682016040523d82523d6000602084013e613df8565b606091505b5091509150818015613e0c57506020815110155b8015613bea57508051630b135d3f60e11b90613e319083016020908101908401615c9e565b149695505050505050565b806001600160a01b03163b600003613e7257604051634c9c8ce360e01b81526001600160a01b03821660048201526024016108c6565b600080516020615cf183398151915280546001600160a01b0319166001600160a01b0392909216919091179055565b6060600080846001600160a01b031684604051613ebe9190615cde565b600060405180830381855af49150503d8060008114613ef9576040519150601f19603f3d011682016040523d82523d6000602084013e613efe565b606091505b5091509150613f0e858383614005565b95945050505050565b3415611aa75760405163b398979f60e01b815260040160405180910390fd5b600080807f7fffffffffffffffffffffffffffffff5d576e7357a4501ddfe92f46681b20a0841115613f715750600091506003905082613ffb565b604080516000808252602082018084528a905260ff891692820192909252606081018790526080810186905260019060a0016020604051602081039080840390855afa158015613fc5573d6000803e3d6000fd5b5050604051601f1901519150506001600160a01b038116613ff157506000925060019150829050613ffb565b9250600091508190505b9450945094915050565b60608261401a5761401582614061565b612da8565b815115801561403157506001600160a01b0384163b155b1561405a57604051639996b31560e01b81526001600160a01b03851660048201526024016108c6565b5080612da8565b8051156140715780518082602001fd5b604051630a12f52160e11b815260040160405180910390fd5b8280548282559060005260206000209081019282156140d0579160200282015b828111156140d057825182906140c09082615bdf565b50916020019190600101906140aa565b506140dc9291506140e0565b5090565b808211156140dc5760006140f482826140fd565b506001016140e0565b508054614109906158ab565b6000825580601f10614119575050565b601f01602090049060005260206000209081019061272491905b808211156140dc5760008155600101614133565b634e487b7160e01b600052604160045260246000fd5b60405161010081016001600160401b038111828210171561418057614180614147565b60405290565b604051601f8201601f191681016001600160401b03811182821017156141ae576141ae614147565b604052919050565b60006001600160401b038211156141cf576141cf614147565b5060051b60200190565b600082601f8301126141ea57600080fd5b813560206141ff6141fa836141b6565b614186565b8083825260208201915060208460051b87010193508684111561422157600080fd5b602086015b84811015610ca05780358352918301918301614226565b600082601f83011261424e57600080fd5b81356001600160401b0381111561426757614267614147565b61427a601f8201601f1916602001614186565b81815284602083860101111561428f57600080fd5b816020850160208301376000918101602001919091529392505050565b60006142ba6141fa846141b6565b8381529050602080820190600585901b8401868111156142d957600080fd5b845b818110156143145780356001600160401b038111156142fa5760008081fd5b6143068982890161423d565b8552509282019282016142db565b505050509392505050565b600082601f83011261433057600080fd5b612da8838335602085016142ac565b6001600160a01b038116811461272457600080fd5b803561435f8161433f565b919050565b600082601f83011261437557600080fd5b813560206143856141fa836141b6565b8083825260208201915060208460051b8701019350868411156143a757600080fd5b602086015b84811015610ca05780356143bf8161433f565b83529183019183016143ac565b60008060008060008060c087890312156143e557600080fd5b86356001600160401b03808211156143fc57600080fd5b6144088a838b016141d9565b9750602089013591508082111561441e57600080fd5b61442a8a838b0161431f565b9650604089013591508082111561444057600080fd5b61444c8a838b01614364565b9550606089013591508082111561446257600080fd5b61446e8a838b016141d9565b9450608089013591508082111561448457600080fd5b6144908a838b0161423d565b935060a08901359150808211156144a657600080fd5b506144b389828a0161423d565b9150509295509295509295565b80356004811061435f57600080fd5b80356001600160401b038116811461435f57600080fd5b8035801515811461435f57600080fd5b600082601f83011261450757600080fd5b813560206145176141fa836141b6565b82815260059290921b8401810191818101908684111561453657600080fd5b8286015b84811015610ca05780356001600160401b038111156145595760008081fd5b6145678986838b010161423d565b84525091830191830161453a565b6000610100828403121561458857600080fd5b61459061415d565b9050813581526145a2602083016144c0565b6020820152604082013560408201526145bd60608301614354565b60608201526145ce608083016144cf565b60808201526145df60a083016144e6565b60a082015260c08201356001600160401b03808211156145fe57600080fd5b61460a858386016144f6565b60c084015260e084013591508082111561462357600080fd5b506146308482850161423d565b60e08301525092915050565b600061464a6141fa846141b6565b8381529050602080820190600585901b84018681111561466957600080fd5b845b818110156143145780356001600160401b0381111561468a5760008081fd5b61469689828901614575565b85525092820192820161466b565b600082601f8301126146b557600080fd5b612da88383356020850161463c565b60008060008060008060c087890312156146dd57600080fd5b86356001600160401b03808211156146f457600080fd5b6147008a838b016146a4565b9750602089013591508082111561471657600080fd5b6147228a838b01614364565b9650604089013591508082111561473857600080fd5b6147448a838b016141d9565b9550606089013591508082111561475a57600080fd5b61446e8a838b0161431f565b60008151808452602080850194506020840160005b838110156147975781518752958201959082019060010161477b565b509495945050505050565b602081526000612da86020830184614766565b60008083601f8401126147c757600080fd5b5081356001600160401b038111156147de57600080fd5b6020830191508360208260051b85010111156147f957600080fd5b9250929050565b60008083601f84011261481257600080fd5b5081356001600160401b0381111561482957600080fd5b6020830191508360208285010111156147f957600080fd5b60008060008060006060868803121561485957600080fd5b85356001600160401b038082111561487057600080fd5b61487c89838a016147b5565b9097509550602088013591506148918261433f565b909350604087013590808211156148a757600080fd5b506148b488828901614800565b969995985093965092949392505050565b600080604083850312156148d857600080fd5b8235915060208301356001600160401b038111156148f557600080fd5b6149018582860161423d565b9150509250929050565b600080600080600080600080600060c08a8c03121561492957600080fd5b8935985060208a01356001600160401b038082111561494757600080fd5b6149538d838e01614800565b909a50985060408c013591506149688261433f565b90965060608b0135955060808b0135908082111561498557600080fd5b6149918d838e01614800565b909650945060a08c01359150808211156149aa57600080fd5b506149b78c828d01614800565b915080935050809150509295985092959850929598565b60008060008060008060c087890312156149e757600080fd5b86356001600160401b03808211156149fe57600080fd5b614a0a8a838b01614575565b9750614a1860208a01614354565b9650604089013595506060890135915080821115614a3557600080fd5b61446e8a838b0161423d565b600060208284031215614a5357600080fd5b81356001600160401b03811115614a6957600080fd5b614a758482850161431f565b949350505050565b600060208284031215614a8f57600080fd5b5035919050565b634e487b7160e01b600052602160045260246000fd5b60048110614aca57634e487b7160e01b600052602160045260246000fd5b9052565b60005b83811015614ae9578181015183820152602001614ad1565b50506000910152565b60008151808452614b0a816020860160208601614ace565b601f01601f19169290920160200192915050565b60008282518085526020808601955060208260051b8401016020860160005b84811015614b6b57601f19868403018952614b59838351614af2565b98840198925090830190600101614b3d565b5090979650505050505050565b6000610100825184526020830151614b936020860182614aac565b506040830151604085015260018060a01b0360608401511660608501526001600160401b03608084015116608085015260a0830151614bd660a086018215159052565b5060c08301518160c0860152614bee82860182614b1e565b91505060e083015184820360e0860152613f0e8282614af2565b602081526000612da86020830184614b78565b600060018060a01b038083511684526020830151151560208501526040830151614c486040860182614aac565b506001600160401b0360608401511660608501528060808401511660808501525060a082015160c060a0850152614a7560c0850182614af2565b602081526000612da86020830184614c1b565b600080600080600060a08688031215614cad57600080fd5b85356001600160401b0380821115614cc457600080fd5b614cd089838a016146a4565b96506020880135915080821115614ce657600080fd5b614cf289838a016141d9565b95506040880135915080821115614d0857600080fd5b614d1489838a0161431f565b94506060880135915080821115614d2a57600080fd5b614d3689838a0161423d565b93506080880135915080821115614d4c57600080fd5b50614d598882890161423d565b9150509295509295909350565b60008060408385031215614d7957600080fd5b8235614d848161433f565b915060208301356001600160401b038111156148f557600080fd5b6000806000806000806000806080898b031215614dbb57600080fd5b88356001600160401b0380821115614dd257600080fd5b614dde8c838d016147b5565b909a50985060208b0135915080821115614df757600080fd5b614e038c838d016147b5565b909850965060408b0135915080821115614e1c57600080fd5b614e288c838d01614800565b909650945060608b0135915080821115614e4157600080fd5b50614e4e8b828c01614800565b999c989b5096995094979396929594505050565b602081526000612da86020830184614af2565b60008060008060008060608789031215614e8e57600080fd5b86356001600160401b0380821115614ea557600080fd5b614eb18a838b01614800565b90985096506020890135915080821115614eca57600080fd5b614ed68a838b01614800565b90965094506040890135915080821115614eef57600080fd5b50614efc89828a01614800565b979a9699509497509295939492505050565b600060208284031215614f2057600080fd5b81356001600160401b03811115614f3657600080fd5b614a7584828501614575565b60008060208385031215614f5557600080fd5b82356001600160401b03811115614f6b57600080fd5b614f7785828601614800565b90969095509350505050565b60008060008060008060008060a0898b031215614f9f57600080fd5b8835975060208901356001600160401b0380821115614fbd57600080fd5b614fc98c838d01614800565b909950975060408b0135965060608b0135915080821115614fe957600080fd5b614ff58c838d01614800565b909650945060808b0135915080821115614e4157600080fd5b6000806040838503121561502157600080fd5b82356001600160401b038082111561503857600080fd5b6150448683870161423d565b9350602085013591508082111561505a57600080fd5b506149018582860161423d565b600080600080600060a0868803121561507f57600080fd5b85356001600160401b038082111561509657600080fd5b6150a289838a016141d9565b965060208801359150808211156150b857600080fd5b6150c489838a0161431f565b955060408801359150808211156150da57600080fd5b614d1489838a016141d9565b600060c082840312156150f857600080fd5b60405160c081016001600160401b03828210818311171561511b5761511b614147565b816040528293508435915061512f8261433f565b81835261513e602086016144e6565b602084015261514f604086016144c0565b6040840152615160606086016144cf565b6060840152608085013591506151758261433f565b81608084015260a085013591508082111561518f57600080fd5b5061519c8582860161423d565b60a0830152505092915050565b60006151b76141fa846141b6565b8381529050602080820190600585901b8401868111156151d657600080fd5b845b818110156143145780356001600160401b038111156151f75760008081fd5b615203898289016150e6565b8552509282019282016151d8565b60006020828403121561522357600080fd5b81356001600160401b0381111561523957600080fd5b8201601f8101841361524a57600080fd5b614a75848235602084016151a9565b60008060008060006060868803121561527157600080fd5b85356001600160401b038082111561528857600080fd5b61487c89838a01614800565b600080600080600080606087890312156152ad57600080fd5b86356001600160401b03808211156152c457600080fd5b6152d08a838b016147b5565b909850965060208901359150808211156152e957600080fd5b614ed68a838b016147b5565b60006020828403121561530757600080fd5b81356001600160401b0381111561531d57600080fd5b614a758482850161423d565b60006020828403121561533b57600080fd5b81356001600160401b0381111561535157600080fd5b614a75848285016146a4565b6000610100828403121561537057600080fd5b50919050565b60008060008060008060006080888a03121561539157600080fd5b87356001600160401b03808211156153a857600080fd5b6153b48b838c0161535d565b985060208a01359150808211156153ca57600080fd5b6153d68b838c01614800565b909850965060408a01359150808211156153ef57600080fd5b6153fb8b838c01614800565b909650945060608a013591508082111561541457600080fd5b506154218a828b01614800565b989b979a50959850939692959293505050565b6000806040838503121561544757600080fd5b82356001600160401b038082111561545e57600080fd5b61546a8683870161431f565b9350602085013591508082111561548057600080fd5b506149018582860161431f565b60006020828403121561549f57600080fd5b81356001600160401b038111156154b557600080fd5b614a75848285016150e6565b600080600080608085870312156154d757600080fd5b84356001600160401b03808211156154ee57600080fd5b6154fa888389016141d9565b9550602087013591508082111561551057600080fd5b61551c8883890161431f565b9450604087013591508082111561553257600080fd5b61553e8883890161423d565b9350606087013591508082111561555457600080fd5b506155618782880161423d565b91505092959194509250565b60008060008060008060006080888a03121561558857600080fd5b8735965060208801356001600160401b03808211156153ca57600080fd5b600080604083850312156155b957600080fd5b82356001600160401b03808211156155d057600080fd5b61546a868387016141d9565b6000602082840312156155ee57600080fd5b8135612da88161433f565b6000806000806040858703121561560f57600080fd5b84356001600160401b038082111561562657600080fd5b615632888389016147b5565b9096509450602087013591508082111561564b57600080fd5b5061565887828801614800565b95989497509550505050565b60008060006040848603121561567957600080fd5b83356001600160401b038082111561569057600080fd5b61569c878388016150e6565b945060208601359150808211156156b257600080fd5b506156bf86828701614800565b9497909650939450505050565b60008060008060008060008060a0898b0312156156e857600080fd5b88356001600160401b03808211156156ff57600080fd5b61570b8c838d0161535d565b995060208b0135985060408b013591508082111561572857600080fd5b6157348c838d01614800565b909850965060608b0135915080821115614fe957600080fd5b634e487b7160e01b600052603260045260246000fd5b600060018060a01b03808916835287602084015286604084015280861660608401525083608083015260c060a08301526157a060c0830184614af2565b98975050505050505050565b6000612da83684846142ac565b6000808335601e198436030181126157d057600080fd5b8301803591506001600160401b038211156157ea57600080fd5b6020019150368190038213156147f957600080fd5b838152826020820152606060408201526000613f0e6060830184614af2565b81835281816020850137506000828201602090810191909152601f909101601f19169091010190565b600060018060a01b03808a16835288602084015287604084015280871660608401525084608083015260c060a083015261588560c08301848661581e565b9998505050505050505050565b828152604060208201526000614a756040830184614b1e565b600181811c908216806158bf57607f821691505b60208210810361537057634e487b7160e01b600052602260045260246000fd5b60018060a01b0385168152836020820152826040820152608060608201526000613bea6080830184614af2565b6000823560fe1983360301811261592257600080fd5b9190910192915050565b6000612da836848461463c565b6000610d8c3683614575565b60018060a01b038616815284602082015283604082015260806060820152600061597360808301848661581e565b979650505050505050565b8183823760009101908152919050565b828152604060208201526000614a756040830184614b78565b8381526060602082015260006159c06060830185614af2565b8281036040840152613bea8185614af2565b60006040820184835260206040602085015281855180845260608601915060608160051b87010193506020870160005b82811015615a3057605f19888703018452615a1e868351614c1b565b95509284019290840190600101615a02565b509398975050505050505050565b828152604060208201526000614a756040830184614af2565b60006040820184835260206040602085015281855180845260608601915060608160051b87010193506020870160005b82811015615a3057605f19888703018452615aa3868351614b78565b95509284019290840190600101615a87565b838152606060208201526000615ace6060830185614b1e565b8281036040840152613bea8185614b1e565b828152604060208201526000614a756040830184614c1b565b838152606060208201526000615ace6060830185614766565b6000823560be1983360301811261592257600080fd5b6000612da83684846151a9565b6000610d8c36836150e6565b602081526000614a7560208301848661581e565b634e487b7160e01b600052601160045260246000fd5b600060018201615b7d57615b7d615b55565b5060010190565b81810381811115610d8c57610d8c615b55565b601f821115612b3c576000816000526020600020601f850160051c81016020861015615bc05750805b601f850160051c820191505b81811015610d4b57828155600101615bcc565b81516001600160401b03811115615bf857615bf8614147565b615c0c81615c0684546158ab565b84615b97565b602080601f831160018114615c415760008415615c295750858301515b600019600386901b1c1916600185901b178555610d4b565b600085815260208120601f198616915b82811015615c7057888601518255948401946001909101908401615c51565b5085821015615c8e5787850151600019600388901b60f8161c191681555b5050505050600190811b01905550565b600060208284031215615cb057600080fd5b5051919050565b604081526000615ccb60408301868861581e565b828103602084015261597381858761581e565b60008251615922818460208701614ace56fe360894a13ba1a3210667c828492db98dca3e2076cc3735a920a3ca505d382bbca2646970667358221220d188fa931f93958cbee841a9bebb5d4cef2f6c1faf643adb7c1e6c3f97360dd664736f6c63430008170033",
  "linkReferences": {},
  "deployedLinkReferences": {}
}