{
  "_format": "hh-sol-artifact-1",
  "contractName": "SP",
  "sourceName": "src/core/SP.sol",
  "abi": [
    {
      "inputs": [],
      "stateMutability": "nonpayable",
      "type": "constructor"
    },
    {
      "inputs": [
        {
          "internalType": "address",
          "name": "target",
          "type": "address"
        }
      ],
      "name": "AddressEmptyCode",
      "type": "error"
    },
    {
      "inputs": [],
      "name": "AttestationAlreadyRevoked",
      "type": "error"
    },
    {
      "inputs": [],
      "name": "AttestationInvalidDuration",
      "type": "error"
    },
    {
      "inputs": [],
      "name": "AttestationIrrevocable",
      "type": "error"
    },
    {
      "inputs": [],
      "name": "AttestationNonexistent",
      "type": "error"
    },
    {
      "inputs": [],
      "name": "AttestationWrongAttester",
      "type": "error"
    },
    {
      "inputs": [
        {
          "internalType": "address",
          "name": "implementation",
          "type": "address"
        }
      ],
      "name": "ERC1967InvalidImplementation",
      "type": "error"
    },
    {
      "inputs": [],
      "name": "ERC1967NonPayable",
      "type": "error"
    },
    {
      "inputs": [],
      "name": "FailedInnerCall",
      "type": "error"
    },
    {
      "inputs": [],
      "name": "InvalidDelegateSignature",
      "type": "error"
    },
    {
      "inputs": [],
      "name": "InvalidInitialization",
      "type": "error"
    },
    {
      "inputs": [],
      "name": "LegacySPRequired",
      "type": "error"
    },
    {
      "inputs": [],
      "name": "NotInitializing",
      "type": "error"
    },
    {
      "inputs": [],
      "name": "OffchainAttestationAlreadyRevoked",
      "type": "error"
    },
    {
      "inputs": [],
      "name": "OffchainAttestationExists",
      "type": "error"
    },
    {
      "inputs": [],
      "name": "OffchainAttestationNonexistent",
      "type": "error"
    },
    {
      "inputs": [
        {
          "internalType": "address",
          "name": "owner",
          "type": "address"
        }
      ],
      "name": "OwnableInvalidOwner",
      "type": "error"
    },
    {
      "inputs": [
        {
          "internalType": "address",
          "name": "account",
          "type": "address"
        }
      ],
      "name": "OwnableUnauthorizedAccount",
      "type": "error"
    },
    {
      "inputs": [],
      "name": "Paused",
      "type": "error"
    },
    {
      "inputs": [],
      "name": "SchemaNonexistent",
      "type": "error"
    },
    {
      "inputs": [],
      "name": "SchemaWrongRegistrant",
      "type": "error"
    },
    {
      "inputs": [],
      "name": "UUPSUnauthorizedCallContext",
      "type": "error"
    },
    {
      "inputs": [
        {
          "internalType": "bytes32",
          "name": "slot",
          "type": "bytes32"
        }
      ],
      "name": "UUPSUnsupportedProxiableUUID",
      "type": "error"
    },
    {
      "anonymous": false,
      "inputs": [
        {
          "indexed": false,
          "internalType": "uint64",
          "name": "attestationId",
          "type": "uint64"
        },
        {
          "indexed": false,
          "internalType": "string",
          "name": "indexingKey",
          "type": "string"
        }
      ],
      "name": "AttestationMade",
      "type": "event"
    },
    {
      "anonymous": false,
      "inputs": [
        {
          "indexed": false,
          "internalType": "uint64",
          "name": "attestationId",
          "type": "uint64"
        },
        {
          "indexed": false,
          "internalType": "string",
          "name": "reason",
          "type": "string"
        }
      ],
      "name": "AttestationRevoked",
      "type": "event"
    },
    {
      "anonymous": false,
      "inputs": [
        {
          "indexed": false,
          "internalType": "uint64",
          "name": "version",
          "type": "uint64"
        }
      ],
      "name": "Initialized",
      "type": "event"
    },
    {
      "anonymous": false,
      "inputs": [
        {
          "indexed": false,
          "internalType": "string",
          "name": "attestationId",
          "type": "string"
        }
      ],
      "name": "OffchainAttestationMade",
      "type": "event"
    },
    {
      "anonymous": false,
      "inputs": [
        {
          "indexed": false,
          "internalType": "string",
          "name": "attestationId",
          "type": "string"
        },
        {
          "indexed": false,
          "internalType": "string",
          "name": "reason",
          "type": "string"
        }
      ],
      "name": "OffchainAttestationRevoked",
      "type": "event"
    },
    {
      "anonymous": false,
      "inputs": [
        {
          "indexed": true,
          "internalType": "address",
          "name": "previousOwner",
          "type": "address"
        },
        {
          "indexed": true,
          "internalType": "address",
          "name": "newOwner",
          "type": "address"
        }
      ],
      "name": "OwnershipTransferred",
      "type": "event"
    },
    {
      "anonymous": false,
      "inputs": [
        {
          "indexed": false,
          "internalType": "uint64",
          "name": "schemaId",
          "type": "uint64"
        }
      ],
      "name": "SchemaRegistered",
      "type": "event"
    },
    {
      "anonymous": false,
      "inputs": [
        {
          "indexed": true,
          "internalType": "address",
          "name": "implementation",
          "type": "address"
        }
      ],
      "name": "Upgraded",
      "type": "event"
    },
    {
      "inputs": [],
      "name": "UPGRADE_INTERFACE_VERSION",
      "outputs": [
        {
          "internalType": "string",
          "name": "",
          "type": "string"
        }
      ],
      "stateMutability": "view",
      "type": "function"
    },
    {
      "inputs": [
        {
          "components": [
            {
              "internalType": "uint64",
              "name": "schemaId",
              "type": "uint64"
            },
            {
              "internalType": "uint64",
              "name": "linkedAttestationId",
              "type": "uint64"
            },
            {
              "internalType": "uint64",
              "name": "attestTimestamp",
              "type": "uint64"
            },
            {
              "internalType": "uint64",
              "name": "revokeTimestamp",
              "type": "uint64"
            },
            {
              "internalType": "address",
              "name": "attester",
              "type": "address"
            },
            {
              "internalType": "uint64",
              "name": "validUntil",
              "type": "uint64"
            },
            {
              "internalType": "enum DataLocation",
              "name": "dataLocation",
              "type": "uint8"
            },
            {
              "internalType": "bool",
              "name": "revoked",
              "type": "bool"
            },
            {
              "internalType": "bytes[]",
              "name": "recipients",
              "type": "bytes[]"
            },
            {
              "internalType": "bytes",
              "name": "data",
              "type": "bytes"
            }
          ],
          "internalType": "struct Attestation",
          "name": "attestation",
          "type": "tuple"
        },
        {
          "internalType": "contract IERC20",
          "name": "resolverFeesERC20Token",
          "type": "address"
        },
        {
          "internalType": "uint256",
          "name": "resolverFeesERC20Amount",
          "type": "uint256"
        },
        {
          "internalType": "string",
          "name": "indexingKey",
          "type": "string"
        },
        {
          "internalType": "bytes",
          "name": "delegateSignature",
          "type": "bytes"
        },
        {
          "internalType": "bytes",
          "name": "extraData",
          "type": "bytes"
        }
      ],
      "name": "attest",
      "outputs": [
        {
          "internalType": "uint64",
          "name": "",
          "type": "uint64"
        }
      ],
      "stateMutability": "nonpayable",
      "type": "function"
    },
    {
      "inputs": [
        {
          "components": [
            {
              "internalType": "uint64",
              "name": "schemaId",
              "type": "uint64"
            },
            {
              "internalType": "uint64",
              "name": "linkedAttestationId",
              "type": "uint64"
            },
            {
              "internalType": "uint64",
              "name": "attestTimestamp",
              "type": "uint64"
            },
            {
              "internalType": "uint64",
              "name": "revokeTimestamp",
              "type": "uint64"
            },
            {
              "internalType": "address",
              "name": "attester",
              "type": "address"
            },
            {
              "internalType": "uint64",
              "name": "validUntil",
              "type": "uint64"
            },
            {
              "internalType": "enum DataLocation",
              "name": "dataLocation",
              "type": "uint8"
            },
            {
              "internalType": "bool",
              "name": "revoked",
              "type": "bool"
            },
            {
              "internalType": "bytes[]",
              "name": "recipients",
              "type": "bytes[]"
            },
            {
              "internalType": "bytes",
              "name": "data",
              "type": "bytes"
            }
          ],
          "internalType": "struct Attestation",
          "name": "attestation",
          "type": "tuple"
        },
        {
          "internalType": "string",
          "name": "indexingKey",
          "type": "string"
        },
        {
          "internalType": "bytes",
          "name": "delegateSignature",
          "type": "bytes"
        },
        {
          "internalType": "bytes",
          "name": "extraData",
          "type": "bytes"
        }
      ],
      "name": "attest",
      "outputs": [
        {
          "internalType": "uint64",
          "name": "",
          "type": "uint64"
        }
      ],
      "stateMutability": "nonpayable",
      "type": "function"
    },
    {
      "inputs": [
        {
          "components": [
            {
              "internalType": "uint64",
              "name": "schemaId",
              "type": "uint64"
            },
            {
              "internalType": "uint64",
              "name": "linkedAttestationId",
              "type": "uint64"
            },
            {
              "internalType": "uint64",
              "name": "attestTimestamp",
              "type": "uint64"
            },
            {
              "internalType": "uint64",
              "name": "revokeTimestamp",
              "type": "uint64"
            },
            {
              "internalType": "address",
              "name": "attester",
              "type": "address"
            },
            {
              "internalType": "uint64",
              "name": "validUntil",
              "type": "uint64"
            },
            {
              "internalType": "enum DataLocation",
              "name": "dataLocation",
              "type": "uint8"
            },
            {
              "internalType": "bool",
              "name": "revoked",
              "type": "bool"
            },
            {
              "internalType": "bytes[]",
              "name": "recipients",
              "type": "bytes[]"
            },
            {
              "internalType": "bytes",
              "name": "data",
              "type": "bytes"
            }
          ],
          "internalType": "struct Attestation",
          "name": "attestation",
          "type": "tuple"
        },
        {
          "internalType": "uint256",
          "name": "resolverFeesETH",
          "type": "uint256"
        },
        {
          "internalType": "string",
          "name": "indexingKey",
          "type": "string"
        },
        {
          "internalType": "bytes",
          "name": "delegateSignature",
          "type": "bytes"
        },
        {
          "internalType": "bytes",
          "name": "extraData",
          "type": "bytes"
        }
      ],
      "name": "attest",
      "outputs": [
        {
          "internalType": "uint64",
          "name": "",
          "type": "uint64"
        }
      ],
      "stateMutability": "payable",
      "type": "function"
    },
    {
      "inputs": [
        {
          "components": [
            {
              "internalType": "uint64",
              "name": "schemaId",
              "type": "uint64"
            },
            {
              "internalType": "uint64",
              "name": "linkedAttestationId",
              "type": "uint64"
            },
            {
              "internalType": "uint64",
              "name": "attestTimestamp",
              "type": "uint64"
            },
            {
              "internalType": "uint64",
              "name": "revokeTimestamp",
              "type": "uint64"
            },
            {
              "internalType": "address",
              "name": "attester",
              "type": "address"
            },
            {
              "internalType": "uint64",
              "name": "validUntil",
              "type": "uint64"
            },
            {
              "internalType": "enum DataLocation",
              "name": "dataLocation",
              "type": "uint8"
            },
            {
              "internalType": "bool",
              "name": "revoked",
              "type": "bool"
            },
            {
              "internalType": "bytes[]",
              "name": "recipients",
              "type": "bytes[]"
            },
            {
              "internalType": "bytes",
              "name": "data",
              "type": "bytes"
            }
          ],
          "internalType": "struct Attestation[]",
          "name": "attestations",
          "type": "tuple[]"
        },
        {
          "internalType": "uint256[]",
          "name": "resolverFeesETH",
          "type": "uint256[]"
        },
        {
          "internalType": "string[]",
          "name": "indexingKeys",
          "type": "string[]"
        },
        {
          "internalType": "bytes",
          "name": "delegateSignature",
          "type": "bytes"
        },
        {
          "internalType": "bytes",
          "name": "extraData",
          "type": "bytes"
        }
      ],
      "name": "attestBatch",
      "outputs": [
        {
          "internalType": "uint64[]",
          "name": "attestationIds",
          "type": "uint64[]"
        }
      ],
      "stateMutability": "payable",
      "type": "function"
    },
    {
      "inputs": [
        {
          "components": [
            {
              "internalType": "uint64",
              "name": "schemaId",
              "type": "uint64"
            },
            {
              "internalType": "uint64",
              "name": "linkedAttestationId",
              "type": "uint64"
            },
            {
              "internalType": "uint64",
              "name": "attestTimestamp",
              "type": "uint64"
            },
            {
              "internalType": "uint64",
              "name": "revokeTimestamp",
              "type": "uint64"
            },
            {
              "internalType": "address",
              "name": "attester",
              "type": "address"
            },
            {
              "internalType": "uint64",
              "name": "validUntil",
              "type": "uint64"
            },
            {
              "internalType": "enum DataLocation",
              "name": "dataLocation",
              "type": "uint8"
            },
            {
              "internalType": "bool",
              "name": "revoked",
              "type": "bool"
            },
            {
              "internalType": "bytes[]",
              "name": "recipients",
              "type": "bytes[]"
            },
            {
              "internalType": "bytes",
              "name": "data",
              "type": "bytes"
            }
          ],
          "internalType": "struct Attestation[]",
          "name": "attestations",
          "type": "tuple[]"
        },
        {
          "internalType": "contract IERC20[]",
          "name": "resolverFeesERC20Tokens",
          "type": "address[]"
        },
        {
          "internalType": "uint256[]",
          "name": "resolverFeesERC20Amount",
          "type": "uint256[]"
        },
        {
          "internalType": "string[]",
          "name": "indexingKeys",
          "type": "string[]"
        },
        {
          "internalType": "bytes",
          "name": "delegateSignature",
          "type": "bytes"
        },
        {
          "internalType": "bytes",
          "name": "extraData",
          "type": "bytes"
        }
      ],
      "name": "attestBatch",
      "outputs": [
        {
          "internalType": "uint64[]",
          "name": "attestationIds",
          "type": "uint64[]"
        }
      ],
      "stateMutability": "nonpayable",
      "type": "function"
    },
    {
      "inputs": [
        {
          "components": [
            {
              "internalType": "uint64",
              "name": "schemaId",
              "type": "uint64"
            },
            {
              "internalType": "uint64",
              "name": "linkedAttestationId",
              "type": "uint64"
            },
            {
              "internalType": "uint64",
              "name": "attestTimestamp",
              "type": "uint64"
            },
            {
              "internalType": "uint64",
              "name": "revokeTimestamp",
              "type": "uint64"
            },
            {
              "internalType": "address",
              "name": "attester",
              "type": "address"
            },
            {
              "internalType": "uint64",
              "name": "validUntil",
              "type": "uint64"
            },
            {
              "internalType": "enum DataLocation",
              "name": "dataLocation",
              "type": "uint8"
            },
            {
              "internalType": "bool",
              "name": "revoked",
              "type": "bool"
            },
            {
              "internalType": "bytes[]",
              "name": "recipients",
              "type": "bytes[]"
            },
            {
              "internalType": "bytes",
              "name": "data",
              "type": "bytes"
            }
          ],
          "internalType": "struct Attestation[]",
          "name": "attestations",
          "type": "tuple[]"
        },
        {
          "internalType": "string[]",
          "name": "indexingKeys",
          "type": "string[]"
        },
        {
          "internalType": "bytes",
          "name": "delegateSignature",
          "type": "bytes"
        },
        {
          "internalType": "bytes",
          "name": "extraData",
          "type": "bytes"
        }
      ],
      "name": "attestBatch",
      "outputs": [
        {
          "internalType": "uint64[]",
          "name": "attestationIds",
          "type": "uint64[]"
        }
      ],
      "stateMutability": "nonpayable",
      "type": "function"
    },
    {
      "inputs": [
        {
          "internalType": "string",
          "name": "offchainAttestationId",
          "type": "string"
        },
        {
          "internalType": "address",
          "name": "delegateAttester",
          "type": "address"
        },
        {
          "internalType": "bytes",
          "name": "delegateSignature",
          "type": "bytes"
        }
      ],
      "name": "attestOffchain",
      "outputs": [],
      "stateMutability": "nonpayable",
      "type": "function"
    },
    {
      "inputs": [
        {
          "internalType": "string[]",
          "name": "attestationIds",
          "type": "string[]"
        },
        {
          "internalType": "address",
          "name": "delegateAttester",
          "type": "address"
        },
        {
          "internalType": "bytes",
          "name": "delegateSignature",
          "type": "bytes"
        }
      ],
      "name": "attestOffchainBatch",
      "outputs": [],
      "stateMutability": "nonpayable",
      "type": "function"
    },
    {
      "inputs": [],
      "name": "attestationCounter",
      "outputs": [
        {
          "internalType": "uint64",
          "name": "",
          "type": "uint64"
        }
      ],
      "stateMutability": "view",
      "type": "function"
    },
    {
      "inputs": [
        {
          "internalType": "uint64",
          "name": "attestationId",
          "type": "uint64"
        }
      ],
      "name": "getAttestation",
      "outputs": [
        {
          "components": [
            {
              "internalType": "uint64",
              "name": "schemaId",
              "type": "uint64"
            },
            {
              "internalType": "uint64",
              "name": "linkedAttestationId",
              "type": "uint64"
            },
            {
              "internalType": "uint64",
              "name": "attestTimestamp",
              "type": "uint64"
            },
            {
              "internalType": "uint64",
              "name": "revokeTimestamp",
              "type": "uint64"
            },
            {
              "internalType": "address",
              "name": "attester",
              "type": "address"
            },
            {
              "internalType": "uint64",
              "name": "validUntil",
              "type": "uint64"
            },
            {
              "internalType": "enum DataLocation",
              "name": "dataLocation",
              "type": "uint8"
            },
            {
              "internalType": "bool",
              "name": "revoked",
              "type": "bool"
            },
            {
              "internalType": "bytes[]",
              "name": "recipients",
              "type": "bytes[]"
            },
            {
              "internalType": "bytes",
              "name": "data",
              "type": "bytes"
            }
          ],
          "internalType": "struct Attestation",
          "name": "",
          "type": "tuple"
        }
      ],
      "stateMutability": "view",
      "type": "function"
    },
    {
      "inputs": [
        {
          "components": [
            {
              "internalType": "uint64",
              "name": "schemaId",
              "type": "uint64"
            },
            {
              "internalType": "uint64",
              "name": "linkedAttestationId",
              "type": "uint64"
            },
            {
              "internalType": "uint64",
              "name": "attestTimestamp",
              "type": "uint64"
            },
            {
              "internalType": "uint64",
              "name": "revokeTimestamp",
              "type": "uint64"
            },
            {
              "internalType": "address",
              "name": "attester",
              "type": "address"
            },
            {
              "internalType": "uint64",
              "name": "validUntil",
              "type": "uint64"
            },
            {
              "internalType": "enum DataLocation",
              "name": "dataLocation",
              "type": "uint8"
            },
            {
              "internalType": "bool",
              "name": "revoked",
              "type": "bool"
            },
            {
              "internalType": "bytes[]",
              "name": "recipients",
              "type": "bytes[]"
            },
            {
              "internalType": "bytes",
              "name": "data",
              "type": "bytes"
            }
          ],
          "internalType": "struct Attestation[]",
          "name": "attestations",
          "type": "tuple[]"
        }
      ],
      "name": "getDelegatedAttestBatchHash",
      "outputs": [
        {
          "internalType": "bytes32",
          "name": "",
          "type": "bytes32"
        }
      ],
      "stateMutability": "pure",
      "type": "function"
    },
    {
      "inputs": [
        {
          "components": [
            {
              "internalType": "uint64",
              "name": "schemaId",
              "type": "uint64"
            },
            {
              "internalType": "uint64",
              "name": "linkedAttestationId",
              "type": "uint64"
            },
            {
              "internalType": "uint64",
              "name": "attestTimestamp",
              "type": "uint64"
            },
            {
              "internalType": "uint64",
              "name": "revokeTimestamp",
              "type": "uint64"
            },
            {
              "internalType": "address",
              "name": "attester",
              "type": "address"
            },
            {
              "internalType": "uint64",
              "name": "validUntil",
              "type": "uint64"
            },
            {
              "internalType": "enum DataLocation",
              "name": "dataLocation",
              "type": "uint8"
            },
            {
              "internalType": "bool",
              "name": "revoked",
              "type": "bool"
            },
            {
              "internalType": "bytes[]",
              "name": "recipients",
              "type": "bytes[]"
            },
            {
              "internalType": "bytes",
              "name": "data",
              "type": "bytes"
            }
          ],
          "internalType": "struct Attestation",
          "name": "attestation",
          "type": "tuple"
        }
      ],
      "name": "getDelegatedAttestHash",
      "outputs": [
        {
          "internalType": "bytes32",
          "name": "",
          "type": "bytes32"
        }
      ],
      "stateMutability": "pure",
      "type": "function"
    },
    {
      "inputs": [
        {
          "internalType": "string[]",
          "name": "offchainAttestationIds",
          "type": "string[]"
        }
      ],
      "name": "getDelegatedOffchainAttestBatchHash",
      "outputs": [
        {
          "internalType": "bytes32",
          "name": "",
          "type": "bytes32"
        }
      ],
      "stateMutability": "pure",
      "type": "function"
    },
    {
      "inputs": [
        {
          "internalType": "string",
          "name": "offchainAttestationId",
          "type": "string"
        }
      ],
      "name": "getDelegatedOffchainAttestHash",
      "outputs": [
        {
          "internalType": "bytes32",
          "name": "",
          "type": "bytes32"
        }
      ],
      "stateMutability": "pure",
      "type": "function"
    },
    {
      "inputs": [
        {
          "internalType": "string[]",
          "name": "offchainAttestationIds",
          "type": "string[]"
        },
        {
          "internalType": "string[]",
          "name": "reasons",
          "type": "string[]"
        }
      ],
      "name": "getDelegatedOffchainRevokeBatchHash",
      "outputs": [
        {
          "internalType": "bytes32",
          "name": "",
          "type": "bytes32"
        }
      ],
      "stateMutability": "pure",
      "type": "function"
    },
    {
      "inputs": [
        {
          "internalType": "string",
          "name": "offchainAttestationId",
          "type": "string"
        },
        {
          "internalType": "string",
          "name": "reason",
          "type": "string"
        }
      ],
      "name": "getDelegatedOffchainRevokeHash",
      "outputs": [
        {
          "internalType": "bytes32",
          "name": "",
          "type": "bytes32"
        }
      ],
      "stateMutability": "pure",
      "type": "function"
    },
    {
      "inputs": [
        {
          "components": [
            {
              "internalType": "address",
              "name": "registrant",
              "type": "address"
            },
            {
              "internalType": "bool",
              "name": "revocable",
              "type": "bool"
            },
            {
              "internalType": "enum DataLocation",
              "name": "dataLocation",
              "type": "uint8"
            },
            {
              "internalType": "uint64",
              "name": "maxValidFor",
              "type": "uint64"
            },
            {
              "internalType": "contract ISPHook",
              "name": "hook",
              "type": "address"
            },
            {
              "internalType": "uint64",
              "name": "timestamp",
              "type": "uint64"
            },
            {
              "internalType": "string",
              "name": "data",
              "type": "string"
            }
          ],
          "internalType": "struct Schema[]",
          "name": "schemas",
          "type": "tuple[]"
        }
      ],
      "name": "getDelegatedRegisterBatchHash",
      "outputs": [
        {
          "internalType": "bytes32",
          "name": "",
          "type": "bytes32"
        }
      ],
      "stateMutability": "pure",
      "type": "function"
    },
    {
      "inputs": [
        {
          "components": [
            {
              "internalType": "address",
              "name": "registrant",
              "type": "address"
            },
            {
              "internalType": "bool",
              "name": "revocable",
              "type": "bool"
            },
            {
              "internalType": "enum DataLocation",
              "name": "dataLocation",
              "type": "uint8"
            },
            {
              "internalType": "uint64",
              "name": "maxValidFor",
              "type": "uint64"
            },
            {
              "internalType": "contract ISPHook",
              "name": "hook",
              "type": "address"
            },
            {
              "internalType": "uint64",
              "name": "timestamp",
              "type": "uint64"
            },
            {
              "internalType": "string",
              "name": "data",
              "type": "string"
            }
          ],
          "internalType": "struct Schema",
          "name": "schema",
          "type": "tuple"
        }
      ],
      "name": "getDelegatedRegisterHash",
      "outputs": [
        {
          "internalType": "bytes32",
          "name": "",
          "type": "bytes32"
        }
      ],
      "stateMutability": "pure",
      "type": "function"
    },
    {
      "inputs": [
        {
          "internalType": "uint64[]",
          "name": "attestationIds",
          "type": "uint64[]"
        },
        {
          "internalType": "string[]",
          "name": "reasons",
          "type": "string[]"
        }
      ],
      "name": "getDelegatedRevokeBatchHash",
      "outputs": [
        {
          "internalType": "bytes32",
          "name": "",
          "type": "bytes32"
        }
      ],
      "stateMutability": "pure",
      "type": "function"
    },
    {
      "inputs": [
        {
          "internalType": "uint64",
          "name": "attestationId",
          "type": "uint64"
        },
        {
          "internalType": "string",
          "name": "reason",
          "type": "string"
        }
      ],
      "name": "getDelegatedRevokeHash",
      "outputs": [
        {
          "internalType": "bytes32",
          "name": "",
          "type": "bytes32"
        }
      ],
      "stateMutability": "pure",
      "type": "function"
    },
    {
      "inputs": [
        {
          "internalType": "string",
          "name": "offchainAttestationId",
          "type": "string"
        }
      ],
      "name": "getOffchainAttestation",
      "outputs": [
        {
          "components": [
            {
              "internalType": "address",
              "name": "attester",
              "type": "address"
            },
            {
              "internalType": "uint64",
              "name": "timestamp",
              "type": "uint64"
            }
          ],
          "internalType": "struct OffchainAttestation",
          "name": "",
          "type": "tuple"
        }
      ],
      "stateMutability": "view",
      "type": "function"
    },
    {
      "inputs": [
        {
          "internalType": "uint64",
          "name": "schemaId",
          "type": "uint64"
        }
      ],
      "name": "getSchema",
      "outputs": [
        {
          "components": [
            {
              "internalType": "address",
              "name": "registrant",
              "type": "address"
            },
            {
              "internalType": "bool",
              "name": "revocable",
              "type": "bool"
            },
            {
              "internalType": "enum DataLocation",
              "name": "dataLocation",
              "type": "uint8"
            },
            {
              "internalType": "uint64",
              "name": "maxValidFor",
              "type": "uint64"
            },
            {
              "internalType": "contract ISPHook",
              "name": "hook",
              "type": "address"
            },
            {
              "internalType": "uint64",
              "name": "timestamp",
              "type": "uint64"
            },
            {
              "internalType": "string",
              "name": "data",
              "type": "string"
            }
          ],
          "internalType": "struct Schema",
          "name": "",
          "type": "tuple"
        }
      ],
      "stateMutability": "view",
      "type": "function"
    },
    {
      "inputs": [
        {
          "internalType": "uint64",
          "name": "schemaCounter_",
          "type": "uint64"
        },
        {
          "internalType": "uint64",
          "name": "attestationCounter_",
          "type": "uint64"
        }
      ],
      "name": "initialize",
      "outputs": [],
      "stateMutability": "nonpayable",
      "type": "function"
    },
    {
      "inputs": [],
      "name": "owner",
      "outputs": [
        {
          "internalType": "address",
          "name": "",
          "type": "address"
        }
      ],
      "stateMutability": "view",
      "type": "function"
    },
    {
      "inputs": [],
      "name": "proxiableUUID",
      "outputs": [
        {
          "internalType": "bytes32",
          "name": "",
          "type": "bytes32"
        }
      ],
      "stateMutability": "view",
      "type": "function"
    },
    {
      "inputs": [
        {
          "components": [
            {
              "internalType": "address",
              "name": "registrant",
              "type": "address"
            },
            {
              "internalType": "bool",
              "name": "revocable",
              "type": "bool"
            },
            {
              "internalType": "enum DataLocation",
              "name": "dataLocation",
              "type": "uint8"
            },
            {
              "internalType": "uint64",
              "name": "maxValidFor",
              "type": "uint64"
            },
            {
              "internalType": "contract ISPHook",
              "name": "hook",
              "type": "address"
            },
            {
              "internalType": "uint64",
              "name": "timestamp",
              "type": "uint64"
            },
            {
              "internalType": "string",
              "name": "data",
              "type": "string"
            }
          ],
          "internalType": "struct Schema",
          "name": "schema",
          "type": "tuple"
        },
        {
          "internalType": "bytes",
          "name": "delegateSignature",
          "type": "bytes"
        }
      ],
      "name": "register",
      "outputs": [
        {
          "internalType": "uint64",
          "name": "schemaId",
          "type": "uint64"
        }
      ],
      "stateMutability": "nonpayable",
      "type": "function"
    },
    {
      "inputs": [
        {
          "components": [
            {
              "internalType": "address",
              "name": "registrant",
              "type": "address"
            },
            {
              "internalType": "bool",
              "name": "revocable",
              "type": "bool"
            },
            {
              "internalType": "enum DataLocation",
              "name": "dataLocation",
              "type": "uint8"
            },
            {
              "internalType": "uint64",
              "name": "maxValidFor",
              "type": "uint64"
            },
            {
              "internalType": "contract ISPHook",
              "name": "hook",
              "type": "address"
            },
            {
              "internalType": "uint64",
              "name": "timestamp",
              "type": "uint64"
            },
            {
              "internalType": "string",
              "name": "data",
              "type": "string"
            }
          ],
          "internalType": "struct Schema[]",
          "name": "schemas",
          "type": "tuple[]"
        },
        {
          "internalType": "bytes",
          "name": "delegateSignature",
          "type": "bytes"
        }
      ],
      "name": "registerBatch",
      "outputs": [
        {
          "internalType": "uint64[]",
          "name": "schemaIds",
          "type": "uint64[]"
        }
      ],
      "stateMutability": "nonpayable",
      "type": "function"
    },
    {
      "inputs": [],
      "name": "renounceOwnership",
      "outputs": [],
      "stateMutability": "nonpayable",
      "type": "function"
    },
    {
      "inputs": [
        {
          "internalType": "uint64",
          "name": "attestationId",
          "type": "uint64"
        },
        {
          "internalType": "string",
          "name": "reason",
          "type": "string"
        },
        {
          "internalType": "bytes",
          "name": "delegateSignature",
          "type": "bytes"
        },
        {
          "internalType": "bytes",
          "name": "extraData",
          "type": "bytes"
        }
      ],
      "name": "revoke",
      "outputs": [],
      "stateMutability": "nonpayable",
      "type": "function"
    },
    {
      "inputs": [
        {
          "internalType": "uint64",
          "name": "attestationId",
          "type": "uint64"
        },
        {
          "internalType": "string",
          "name": "reason",
          "type": "string"
        },
        {
          "internalType": "contract IERC20",
          "name": "resolverFeesERC20Token",
          "type": "address"
        },
        {
          "internalType": "uint256",
          "name": "resolverFeesERC20Amount",
          "type": "uint256"
        },
        {
          "internalType": "bytes",
          "name": "delegateSignature",
          "type": "bytes"
        },
        {
          "internalType": "bytes",
          "name": "extraData",
          "type": "bytes"
        }
      ],
      "name": "revoke",
      "outputs": [],
      "stateMutability": "nonpayable",
      "type": "function"
    },
    {
      "inputs": [
        {
          "internalType": "uint64",
          "name": "attestationId",
          "type": "uint64"
        },
        {
          "internalType": "string",
          "name": "reason",
          "type": "string"
        },
        {
          "internalType": "uint256",
          "name": "resolverFeesETH",
          "type": "uint256"
        },
        {
          "internalType": "bytes",
          "name": "delegateSignature",
          "type": "bytes"
        },
        {
          "internalType": "bytes",
          "name": "extraData",
          "type": "bytes"
        }
      ],
      "name": "revoke",
      "outputs": [],
      "stateMutability": "payable",
      "type": "function"
    },
    {
      "inputs": [
        {
          "internalType": "uint64[]",
          "name": "attestationIds",
          "type": "uint64[]"
        },
        {
          "internalType": "string[]",
          "name": "reasons",
          "type": "string[]"
        },
        {
          "internalType": "bytes",
          "name": "delegateSignature",
          "type": "bytes"
        },
        {
          "internalType": "bytes",
          "name": "extraData",
          "type": "bytes"
        }
      ],
      "name": "revokeBatch",
      "outputs": [],
      "stateMutability": "nonpayable",
      "type": "function"
    },
    {
      "inputs": [
        {
          "internalType": "uint64[]",
          "name": "attestationIds",
          "type": "uint64[]"
        },
        {
          "internalType": "string[]",
          "name": "reasons",
          "type": "string[]"
        },
        {
          "internalType": "uint256[]",
          "name": "resolverFeesETH",
          "type": "uint256[]"
        },
        {
          "internalType": "bytes",
          "name": "delegateSignature",
          "type": "bytes"
        },
        {
          "internalType": "bytes",
          "name": "extraData",
          "type": "bytes"
        }
      ],
      "name": "revokeBatch",
      "outputs": [],
      "stateMutability": "payable",
      "type": "function"
    },
    {
      "inputs": [
        {
          "internalType": "uint64[]",
          "name": "attestationIds",
          "type": "uint64[]"
        },
        {
          "internalType": "string[]",
          "name": "reasons",
          "type": "string[]"
        },
        {
          "internalType": "contract IERC20[]",
          "name": "resolverFeesERC20Tokens",
          "type": "address[]"
        },
        {
          "internalType": "uint256[]",
          "name": "resolverFeesERC20Amount",
          "type": "uint256[]"
        },
        {
          "internalType": "bytes",
          "name": "delegateSignature",
          "type": "bytes"
        },
        {
          "internalType": "bytes",
          "name": "extraData",
          "type": "bytes"
        }
      ],
      "name": "revokeBatch",
      "outputs": [],
      "stateMutability": "nonpayable",
      "type": "function"
    },
    {
      "inputs": [
        {
          "internalType": "string",
          "name": "offchainAttestationId",
          "type": "string"
        },
        {
          "internalType": "string",
          "name": "reason",
          "type": "string"
        },
        {
          "internalType": "bytes",
          "name": "delegateSignature",
          "type": "bytes"
        }
      ],
      "name": "revokeOffchain",
      "outputs": [],
      "stateMutability": "nonpayable",
      "type": "function"
    },
    {
      "inputs": [
        {
          "internalType": "string[]",
          "name": "offchainAttestationIds",
          "type": "string[]"
        },
        {
          "internalType": "string[]",
          "name": "reasons",
          "type": "string[]"
        },
        {
          "internalType": "bytes",
          "name": "delegateSignature",
          "type": "bytes"
        }
      ],
      "name": "revokeOffchainBatch",
      "outputs": [],
      "stateMutability": "nonpayable",
      "type": "function"
    },
    {
      "inputs": [],
      "name": "schemaCounter",
      "outputs": [
        {
          "internalType": "uint64",
          "name": "",
          "type": "uint64"
        }
      ],
      "stateMutability": "view",
      "type": "function"
    },
    {
      "inputs": [
        {
          "internalType": "address",
          "name": "hook",
          "type": "address"
        }
      ],
      "name": "setGlobalHook",
      "outputs": [],
      "stateMutability": "nonpayable",
      "type": "function"
    },
    {
      "inputs": [
        {
          "internalType": "bool",
          "name": "paused",
          "type": "bool"
        }
      ],
      "name": "setPause",
      "outputs": [],
      "stateMutability": "nonpayable",
      "type": "function"
    },
    {
      "inputs": [
        {
          "internalType": "address",
          "name": "newOwner",
          "type": "address"
        }
      ],
      "name": "transferOwnership",
      "outputs": [],
      "stateMutability": "nonpayable",
      "type": "function"
    },
    {
      "inputs": [
        {
          "internalType": "address",
          "name": "newImplementation",
          "type": "address"
        },
        {
          "internalType": "bytes",
          "name": "data",
          "type": "bytes"
        }
      ],
      "name": "upgradeToAndCall",
      "outputs": [],
      "stateMutability": "payable",
      "type": "function"
    },
    {
      "inputs": [],
      "name": "version",
      "outputs": [
        {
          "internalType": "string",
          "name": "",
          "type": "string"
        }
      ],
      "stateMutability": "pure",
      "type": "function"
    }
  ],
  "bytecode": "0x60a0604052306080523480156200001557600080fd5b5046617a69146200002a576200002a62000030565b620000e4565b7ff0c57e16840df040f15088dc2f81fe391c3923bec73e23a9662efc9c229c6a00805468010000000000000000900460ff1615620000815760405163f92ee8a960e01b815260040160405180910390fd5b80546001600160401b0390811614620000e15780546001600160401b0319166001600160401b0390811782556040519081527fc7f505b2f371ae2175ee4913f4499e1f2633a7b5936321eed1cdaeb6115181d29060200160405180910390a15b50565b608051615fe56200010e600039600081816138260152818161384f01526139870152615fe56000f3fe60806040526004361061021b5760003560e01c8063812c255f11610124578063bedb86fb116100a6578063bedb86fb14610690578063cb6a3237146106b0578063d3dc7b23146106c5578063d7681235146106e5578063d98934ff146106f8578063dc50eada14610718578063e09f1b7a14610738578063e117a8611461074b578063f2fde38b1461076b578063f83b92b71461078b578063fd3979131461079e57600080fd5b8063812c255f146105105780638d1be875146105305780638da5cb5b1461055d5780638ef1fbc11461057f578063985292eb1461059f5780639b7f8318146105bf578063a01fb774146105df578063ad3cb1cc146105ff578063b82916cb14610630578063ba97637d14610650578063be919fb11461067057600080fd5b80634f1ef286116101ad5780634f1ef2861461038257806352d1902d1461039557806354fd4d50146103aa578063570b7434146103e1578063574a30661461040157806359d9a12f146104215780635e7689b714610441578063622528801461046157806365ae13b31461048e5780636a67651c146104ae578063715018a6146104fb57600080fd5b8062f0f8551461022057806310c037a7146102535780631916749d1461027557806320f2f3451461029557806324855e60146102b5578063263bc92d146102d55780632c996e03146102f55780633f50fb761461032257806340f356fa146103425780634e6ac1d514610362575b600080fd5b34801561022c57600080fd5b5061024061023b3660046145ab565b6107be565b6040519081526020015b60405180910390f35b34801561025f57600080fd5b5061027361026e3660046145fb565b6107fb565b005b34801561028157600080fd5b506102736102903660046146a4565b610830565b3480156102a157600080fd5b506102736102b0366004614728565b6108d8565b3480156102c157600080fd5b506102736102d036600461475b565b610a34565b3480156102e157600080fd5b506102406102f036600461488d565b610bd0565b34801561030157600080fd5b5061030a610bfd565b6040516001600160401b03909116815260200161024a565b34801561032e57600080fd5b5061024061033d366004614abb565b610c20565b34801561034e57600080fd5b5061024061035d366004614b55565b610c44565b610375610370366004614c17565b610c89565b60405161024a9190614d2d565b610273610390366004614d40565b610eca565b3480156103a157600080fd5b50610240610ee9565b3480156103b657600080fd5b506040805180820190915260058152640312e312e360dc1b60208201525b60405161024a9190614dd5565b3480156103ed57600080fd5b506102406103fc366004614de8565b610f06565b34801561040d57600080fd5b5061027361041c366004614e1c565b610f26565b34801561042d57600080fd5b5061037561043c366004614f1d565b61102f565b34801561044d57600080fd5b5061037561045c366004615011565b6112a0565b34801561046d57600080fd5b5061048161047c36600461507c565b6114f3565b60405161024a919061521d565b34801561049a57600080fd5b506102736104a9366004615230565b6117cb565b3480156104ba57600080fd5b506104ce6104c93660046152dc565b6119d7565b6040805182516001600160a01b031681526020928301516001600160401b0316928101929092520161024a565b34801561050757600080fd5b50610273611a49565b34801561051c57600080fd5b5061030a61052b36600461531d565b611a5d565b34801561053c57600080fd5b5061055061054b36600461507c565b611b2c565b60405161024a9190615407565b34801561056957600080fd5b50610572611c74565b60405161024a919061541a565b34801561058b57600080fd5b5061024061059a36600461542e565b611c8f565b3480156105ab57600080fd5b506102406105ba366004615462565b611cad565b3480156105cb57600080fd5b506102736105da3660046154bb565b611cd6565b3480156105eb57600080fd5b506102736105fa366004615534565b611dcd565b34801561060b57600080fd5b506103d4604051806040016040528060058152602001640352e302e360dc1b81525081565b34801561063c57600080fd5b5061030a61064b366004615588565b611e2d565b34801561065c57600080fd5b5061027361066b3660046155dc565b611f54565b34801561067c57600080fd5b5061024061068b36600461563d565b6120e6565b34801561069c57600080fd5b506102736106ab366004615671565b61210d565b3480156106bc57600080fd5b5061030a612130565b3480156106d157600080fd5b506102406106e036600461568c565b61214c565b6102736106f33660046156c2565b61217b565b34801561070457600080fd5b50610375610713366004615741565b61238f565b34801561072457600080fd5b5061024061073336600461577a565b612574565b61030a610746366004615796565b612594565b34801561075757600080fd5b5061030a61076636600461585d565b61267f565b34801561077757600080fd5b506102736107863660046145fb565b6126e3565b6102736107993660046158c5565b61272a565b3480156107aa57600080fd5b506102736107b936600461592b565b61281e565b6000672922a3a4a9aa22a960c11b826040516020016107de9291906159cd565b604051602081830303815290604052805190602001209050919050565b610803612a45565b8061080c612a77565b60050180546001600160a01b0319166001600160a01b039290921691909117905550565b33811561088757610884846108486102f0888a615a39565b85858080601f016020809104026020016040519081016040528093929190818152602001838380828437600092019190915250612a9b92505050565b50825b60005b858110156108c7576108bf8787838181106108a7576108a7615a46565b90506020028101906108b99190615a5c565b84612af8565b60010161088a565b506108d0612c20565b505050505050565b60006108e2612caa565b805490915060ff600160401b82041615906001600160401b03166000811580156109095750825b90506000826001600160401b031660011480156109255750303b155b905081158015610933575080155b156109515760405163f92ee8a960e01b815260040160405180910390fd5b845467ffffffffffffffff19166001178555831561097b57845460ff60401b1916600160401b1785555b6000610985612a77565b905061099033612cce565b60040180546001600160801b0319166001600160401b03898116918217600160401b918a16918202176001600160801b0316600160801b929092026001600160c01b031691909117600160c01b919091021790558315610a2b57845460ff60401b19168555604051600181527fc7f505b2f371ae2175ee4913f4499e1f2633a7b5936321eed1cdaeb6115181d2906020015b60405180910390a15b50505050505050565b6000610a3e612a77565b6001600160401b038916600090815260029190910160205260409020600101546001600160a01b031690508315801590610af257610af282610ab68b8b8b8080601f01602080910402602001604051908101604052809392919081815260200183838082843760009201919091525061257492505050565b88888080601f016020809104026020016040519081016040528093929190818152602001838380828437600092019190915250612a9b92505050565b6000610b368a8a8a8080601f016020809104026020016040519081016040528093929190818152602001838380828437600092019190915250879250612cdf915050565b90506000610b438b612fb1565b90506001600160a01b03811615610bbb57806001600160a01b031663e33361f485848e8a8a6040518663ffffffff1660e01b8152600401610b88959493929190615acb565b600060405180830381600087803b158015610ba257600080fd5b505af1158015610bb6573d6000803e3d6000fd5b505050505b610bc3612c20565b5050505050505050505050565b600074082a8a88aa6a8be9e8c8c869082929cbe8482a8869605b1b826040516020016107de929190615b12565b6000610c07612a77565b60040154600160401b90046001600160401b0316919050565b60006b082a8a88aa6a8be8482a886960a31b826040516020016107de929190615b2b565b60006b0a48aac9e968abe8482a886960a31b8383604051602001610c6a93929190615b89565b6040516020818303038152906040528051906020012090505b92915050565b606060008351600014159050600087600081518110610caa57610caa615a46565b60200260200101516080015190508115610cd157610cd181610ccb8a610c20565b87612a9b565b87516001600160401b03811115610cea57610cea614308565b604051908082528060200260200182016040528015610d13578160200160208202803683370190505b50925060005b8851811015610eb657828015610d5e5750816001600160a01b0316898281518110610d4657610d46615a46565b6020026020010151608001516001600160a01b031614155b15610d7c5760405163688731b160e01b815260040160405180910390fd5b600080610dbc8b8481518110610d9457610d94615a46565b60200260200101518a8581518110610dae57610dae615a46565b602002602001015187613356565b9150915080868481518110610dd357610dd3615a46565b60200260200101906001600160401b031690816001600160401b0316815250506000610dfe82612fb1565b90506001600160a01b03811615610eab57806001600160a01b0316633398b4ed8c8681518110610e3057610e30615a46565b60200260200101518e8781518110610e4a57610e4a615a46565b60200260200101516080015186868d6040518663ffffffff1660e01b8152600401610e789493929190615bb4565b6000604051808303818588803b158015610e9157600080fd5b505af1158015610ea5573d6000803e3d6000fd5b50505050505b505050600101610d19565b50610ebf612c20565b505095945050505050565b610ed261381b565b610edb826138c0565b610ee582826138c8565b5050565b6000610ef361397c565b50600080516020615f9083398151915290565b6000672922a3a4a9aa22a960c11b826040516020016107de929190615bef565b801580159061101a576000610f39612a77565b6003018888604051610f4c929190615c08565b908152604080516020928190038301812054601f8b018490048402820184019092528981526001600160a01b039091169250611018918391610fdc918c908c908190840183828082843760009201919091525050604080516020601f8e018190048102820181019092528c815292508c91508b9081908401838280828437600092019190915250611cad92505050565b86868080601f016020809104026020016040519081016040528093929190818152602001838380828437600092019190915250612a9b92505050565b505b61102787878787856139c5565b610a2b612c20565b81516060901580159061106d5761106d8860008151811061105257611052615a46565b6020026020010151608001516110678a610c20565b86612a9b565b87516001600160401b0381111561108657611086614308565b6040519080825280602002602001820160405280156110af578160200160208202803683370190505b50915060005b885181101561128c578180156111185750886000815181106110d9576110d9615a46565b6020026020010151608001516001600160a01b031689828151811061110057611100615a46565b6020026020010151608001516001600160a01b031614155b156111365760405163688731b160e01b815260040160405180910390fd5b6000806111768b848151811061114e5761114e615a46565b602002602001015189858151811061116857611168615a46565b602002602001015186613356565b915091508085848151811061118d5761118d615a46565b60200260200101906001600160401b031690816001600160401b03168152505060006111b882612fb1565b90506001600160a01b0381161561128157806001600160a01b0316634466507a8d86815181106111ea576111ea615a46565b60200260200101516080015185858f898151811061120a5761120a615a46565b60200260200101518f8a8151811061122457611224615a46565b60200260200101518d6040518763ffffffff1660e01b815260040161124e96959493929190615c18565b600060405180830381600087803b15801561126857600080fd5b505af115801561127c573d6000803e3d6000fd5b505050505b5050506001016110b5565b50611295612c20565b509695505050505050565b60608115156000868682816112b7576112b7615a46565b90506020028101906112c99190615c6e565b6112d79060208101906145fb565b905081156113635761135e878760008181106112f5576112f5615a46565b90506020028101906113079190615c6e565b6113159060208101906145fb565b61132261023b898b615c8e565b87878080601f016020809104026020016040519081016040528093929190818152602001838380828437600092019190915250612a9b92505050565b6113bc565b33878760008161137557611375615a46565b90506020028101906113879190615c6e565b6113959060208101906145fb565b6001600160a01b0316146113bc57604051637198456160e01b815260040160405180910390fd5b856001600160401b038111156113d4576113d4614308565b6040519080825280602002602001820160405280156113fd578160200160208202803683370190505b50925060005b868110156114e05782801561145b5750816001600160a01b031688888381811061142f5761142f615a46565b90506020028101906114419190615c6e565b61144f9060208101906145fb565b6001600160a01b031614155b1561147957604051637198456160e01b815260040160405180910390fd5b6114ae88888381811061148e5761148e615a46565b90506020028101906114a09190615c6e565b6114a990615c9b565b613b2d565b8482815181106114c0576114c0615a46565b6001600160401b0390921660209283029190910190910152600101611403565b506114e9612c20565b5050949350505050565b6115476040805161014081018252600080825260208201819052918101829052606081018290526080810182905260a081018290529060c08201908152600060208201526060604082018190529081015290565b6000611551612a77565b60048101549091506001600160401b03600160c01b9091048116908416101561158d5760405163cc50423960e01b815260040160405180910390fd5b6001600160401b03838116600090815260028301602090815260409182902082516101408101845281548086168252600160401b8104861693820193909352600160801b8304851693810193909352600160c01b9091048316606083015260018101546001600160a01b0381166080840152600160a01b810490931660a0830152909160c0830190600160e01b900460ff16600381111561163057611630615097565b600381111561164157611641615097565b81526001820154600160e81b900460ff161515602080830191909152600283018054604080518285028101850182528281529401939260009084015b8282101561172957838290600052602060002001805461169c90615ca7565b80601f01602080910402602001604051908101604052809291908181526020018280546116c890615ca7565b80156117155780601f106116ea57610100808354040283529160200191611715565b820191906000526020600020905b8154815290600101906020018083116116f857829003601f168201915b50505050508152602001906001019061167d565b50505050815260200160038201805461174190615ca7565b80601f016020809104026020016040519081016040528092919081815260200182805461176d90615ca7565b80156117ba5780601f1061178f576101008083540402835291602001916117ba565b820191906000526020600020905b81548152906001019060200180831161179d57829003601f168201915b505050505081525050915050919050565b815133901580159061183c5760006117e1612a77565b6002016000886000815181106117f9576117f9615a46565b6020908102919091018101516001600160401b03168252810191909152604001600020600101546001600160a01b0316905061183981610ccb8989610c44565b91505b60005b86518110156108c7576000611852612a77565b600201600089848151811061186957611869615a46565b6020908102919091018101516001600160401b03168252810191909152604001600020600101546001600160a01b031690508280156118ba5750836001600160a01b0316816001600160a01b031614155b156118d85760405163688731b160e01b815260040160405180910390fd5b60006119178984815181106118ef576118ef615a46565b602002602001015189858151811061190957611909615a46565b602002602001015186612cdf565b9050600061193d8a858151811061193057611930615a46565b6020026020010151612fb1565b90506001600160a01b038116156119cc57806001600160a01b031663e33361f484848d888151811061197157611971615a46565b60200260200101518b6040518563ffffffff1660e01b81526004016119999493929190615bb4565b600060405180830381600087803b1580156119b357600080fd5b505af11580156119c7573d6000803e3d6000fd5b505050505b50505060010161183f565b60408051808201909152600080825260208201526119f3612a77565b6003018383604051611a06929190615c08565b90815260408051918290036020908101832083830190925290546001600160a01b03811683526001600160401b03600160a01b9091041690820152905092915050565b611a51612a45565b611a5b6000613cd6565b565b815160009015801590611a7b57611a7b88608001516110678a611c8f565b600080611a898a8885613356565b915091506000611a9882612fb1565b90506001600160a01b03811615611b1657806001600160a01b0316634466507a8c6080015185858e8e8c6040518763ffffffff1660e01b8152600401611ae396959493929190615c18565b600060405180830381600087803b158015611afd57600080fd5b505af1158015611b11573d6000803e3d6000fd5b505050505b611b1e612c20565b509998505050505050505050565b6040805160e08101825260008082526020820181905291810182905260608082018390526080820183905260a0820183905260c082015290611b6c612a77565b60048101549091506001600160401b03600160801b90910481169084161015611ba85760405163cc50423960e01b815260040160405180910390fd5b6001600160401b0383166000908152600182016020908152604091829020825160e08101845281546001600160a01b038116825260ff600160a01b820481161515948301949094529093919291840191600160a81b909104166003811115611c1257611c12615097565b6003811115611c2357611c23615097565b815281546001600160401b03600160b01b9091048116602083015260018301546001600160a01b0381166040840152600160a01b900416606082015260028201805460809092019161174190615ca7565b600080611c7f613d32565b546001600160a01b031692915050565b6000651055151154d560d21b826040516020016107de929190615cdb565b60006e2922ab27a5a2afa7a32321a420a4a760891b8383604051602001610c6a93929190615cf4565b6000611ce0612a77565b6001600160401b0388166000908152600291909101602052604090206001015483516001600160a01b03909116915015801590611d2557611d25826110678a8a612574565b6000611d32898984612cdf565b90506000611d3f8a612fb1565b90506001600160a01b03811615611db95760405163e830b5c760e01b81526001600160a01b0382169063e830b5c790611d8690879086908f908e908e908d90600401615c18565b600060405180830381600087803b158015611da057600080fd5b505af1158015611db4573d6000803e3d6000fd5b505050505b611dc1612c20565b50505050505050505050565b338115611e1a57611e178461084888888080601f0160208091040260200160405190810160405280939291908181526020018383808284376000920191909152506120e692505050565b50825b611e25868683612af8565b6108d0612c20565b60008315801590611e5757611e57611e4b60a08b0160808c016145fb565b610ab661059a8c615d1f565b600080611ea4611e668c615d1f565b8b8b8080601f016020809104026020016040519081016040528093929190818152602001838380828437600092019190915250889250613356915050565b915091506000611eb382612fb1565b90506001600160a01b03811615611f3d57806001600160a01b0316633398b4ed8d6080016020810190611ee691906145fb565b85858b8b6040518663ffffffff1660e01b8152600401611f0a959493929190615acb565b600060405180830381600087803b158015611f2457600080fd5b505af1158015611f38573d6000803e3d6000fd5b505050505b611f45612c20565b509a9950505050505050505050565b338115801590611fd7576000611f68612a77565b60030189896000818110611f7e57611f7e615a46565b9050602002810190611f909190615a5c565b604051611f9e929190615c08565b908152604051908190036020019020546001600160a01b03169050611fd481611322611fca8b8d615a39565b6106e08a8c615a39565b91505b60005b878110156120d3576000611fec612a77565b6003018a8a8481811061200157612001615a46565b90506020028101906120139190615a5c565b604051612021929190615c08565b908152604051908190036020019020546001600160a01b0316905082801561205b5750836001600160a01b0316816001600160a01b031614155b156120795760405163688731b160e01b815260040160405180910390fd5b6120ca8a8a8481811061208e5761208e615a46565b90506020028101906120a09190615a5c565b8a8a868181106120b2576120b2615a46565b90506020028101906120c49190615a5c565b876139c5565b50600101611fda565b506120dc612c20565b5050505050505050565b60006e20aa2a22a9aa2fa7a32321a420a4a760891b826040516020016107de929190615d2b565b612115612a45565b8061211e612a77565b805460ff191691151591909117905550565b600061213a612a77565b600401546001600160401b0316919050565b6000740a48aac9e968abe9e8c8c869082929cbe8482a8869605b1b8383604051602001610c6a93929190615d44565b81513390158015906121ec576000612191612a77565b6002016000896000815181106121a9576121a9615a46565b6020908102919091018101516001600160401b03168252810191909152604001600020600101546001600160a01b031690506121e981610ccb8a8a610c44565b91505b60005b8751811015612386576000612202612a77565b60020160008a848151811061221957612219615a46565b6020908102919091018101516001600160401b03168252810191909152604001600020600101546001600160a01b0316905082801561226a5750836001600160a01b0316816001600160a01b031614155b156122885760405163688731b160e01b815260040160405180910390fd5b60006122b98a848151811061229f5761229f615a46565b60200260200101518a858151811061190957611909615a46565b905060006122d28b858151811061193057611930615a46565b90506001600160a01b0381161561237b57806001600160a01b031663e33361f48a868151811061230457612304615a46565b602002602001015185858f898151811061232057612320615a46565b60200260200101518c6040518663ffffffff1660e01b81526004016123489493929190615bb4565b6000604051808303818588803b15801561236157600080fd5b505af1158015612375573d6000803e3d6000fd5b50505050505b5050506001016121ef565b50610a2b612c20565b6060600083516000141590506000866000815181106123b0576123b0615a46565b602002602001015160800151905081156123d1576123d181610ccb89610c20565b86516001600160401b038111156123ea576123ea614308565b604051908082528060200260200182016040528015612413578160200160208202803683370190505b50925060005b87518110156114e05782801561245e5750816001600160a01b031688828151811061244657612446615a46565b6020026020010151608001516001600160a01b031614155b1561247c5760405163688731b160e01b815260040160405180910390fd5b6000806124948a8481518110610d9457610d94615a46565b91509150808684815181106124ab576124ab615a46565b60200260200101906001600160401b031690816001600160401b03168152505060006124d682612fb1565b90506001600160a01b0381161561256957806001600160a01b0316633398b4ed8c868151811061250857612508615a46565b60200260200101516080015185858c6040518563ffffffff1660e01b81526004016125369493929190615bb4565b600060405180830381600087803b15801561255057600080fd5b505af1158015612564573d6000803e3d6000fd5b505050505b505050600101612419565b6000655245564f4b4560d01b8383604051602001610c6a93929190615d5d565b600083158015906125be576125be6125b260a08c0160808d016145fb565b610ab661059a8d615d1f565b6000806125cd611e668d615d1f565b9150915060006125dc82612fb1565b90506001600160a01b0381161561266757806001600160a01b0316633398b4ed8d8f608001602081019061261091906145fb565b86868c8c6040518763ffffffff1660e01b8152600401612634959493929190615acb565b6000604051808303818588803b15801561264d57600080fd5b505af1158015612661573d6000803e3d6000fd5b50505050505b61266f612c20565b509b9a5050505050505050505050565b6000811580159061269e57845161269990610fdc87610f06565b6126c8565b84516001600160a01b031633146126c857604051637198456160e01b815260040160405180910390fd5b6126d185613b2d565b91506126db612c20565b509392505050565b6126eb612a45565b6001600160a01b03811661271e576000604051631e4fbdf760e01b8152600401612715919061541a565b60405180910390fd5b61272781613cd6565b50565b6000612734612a77565b6001600160401b0387166000908152600291909101602052604090206001015483516001600160a01b0390911691501580159061277957612779826110678989612574565b6000612786888884612cdf565b9050600061279389612fb1565b90506001600160a01b0381161561280b576040516338ccd87d60e21b81526001600160a01b0382169063e33361f49089906127d890889087908f908c90600401615bb4565b6000604051808303818588803b1580156127f157600080fd5b505af1158015612805573d6000803e3d6000fd5b50505050505b612813612c20565b505050505050505050565b815133901580159061288f576000612834612a77565b60020160008a60008151811061284c5761284c615a46565b6020908102919091018101516001600160401b03168252810191909152604001600020600101546001600160a01b0316905061288c81610ccb8b8b610c44565b91505b60005b88518110156120d35760006128a5612a77565b60020160008b84815181106128bc576128bc615a46565b6020908102919091018101516001600160401b03168252810191909152604001600020600101546001600160a01b0316905082801561290d5750836001600160a01b0316816001600160a01b031614155b1561292b5760405163688731b160e01b815260040160405180910390fd5b600061295c8b848151811061294257612942615a46565b60200260200101518b858151811061190957611909615a46565b905060006129758c858151811061193057611930615a46565b90506001600160a01b03811615612a3a57806001600160a01b031663e830b5c784848f88815181106129a9576129a9615a46565b60200260200101518e89815181106129c3576129c3615a46565b60200260200101518e8a815181106129dd576129dd615a46565b60200260200101518d6040518763ffffffff1660e01b8152600401612a0796959493929190615c18565b600060405180830381600087803b158015612a2157600080fd5b505af1158015612a35573d6000803e3d6000fd5b505050505b505050600101612892565b33612a4e611c74565b6001600160a01b031614611a5b573360405163118cdaa760e01b8152600401612715919061541a565b7f9f5ee6fb062129ebe4f4f93ab4866ee289599fbb940712219d796d503e3bd40090565b7f19457468657265756d205369676e6564204d6573736167653a0a3332000000006000908152601c839052603c9020612ad690849083613d56565b612af35760405163fdf4e6f960e01b815260040160405180910390fd5b505050565b6000612b02612a77565b805490915060ff1615612b28576040516313d0ff5960e31b815260040160405180910390fd5b6000816003018585604051612b3e929190615c08565b90815260200160405180910390209050612b8d85858080601f016020809104026020016040519081016040528093929190818152602001838380828437600092019190915250613db892505050565b15612bab5760405163772d743560e11b815260040160405180910390fd5b80546001600160e01b031916600160a01b426001600160401b0316026001600160a01b031916176001600160a01b0384161781556040517f6f0bf119c2fc55752051c1cfde5d145fdd499c7f748df7920409c72319ff602790612c119087908790615d85565b60405180910390a15050505050565b6000612c2a612a77565b60058101549091506001600160a01b0316156127275760058101546001600160a01b0316631bf9480b600036336040518463ffffffff1660e01b8152600401612c7593929190615d99565b600060405180830381600087803b158015612c8f57600080fd5b505af1158015612ca3573d6000803e3d6000fd5b5050505050565b7ff0c57e16840df040f15088dc2f81fe391c3923bec73e23a9662efc9c229c6a0090565b612cd6613e01565b61272781613e26565b600080612cea612a77565b805490915060ff1615612d10576040516313d0ff5960e31b815260040160405180910390fd5b6001600160401b0385166000908152600282016020526040902060018101546001600160a01b0316612d5557604051630666176d60e51b815260040160405180910390fd5b83158015612d70575060018101546001600160a01b03163314155b15612d8e5760405163688731b160e01b815260040160405180910390fd5b80546001600160401b031660009081526001830160209081526040808320815160e08101835281546001600160a01b038116825260ff600160a01b8204811615159583019590955290939192840191600160a81b909104166003811115612df757612df7615097565b6003811115612e0857612e08615097565b815281546001600160401b03600160b01b9091048116602083015260018301546001600160a01b0381166040840152600160a01b9004166060820152600282018054608090920191612e5990615ca7565b80601f0160208091040260200160405190810160405280929190818152602001828054612e8590615ca7565b8015612ed25780601f10612ea757610100808354040283529160200191612ed2565b820191906000526020600020905b815481529060010190602001808311612eb557829003601f168201915b50505050508152505090508060200151612eff576040516368cca54d60e11b815260040160405180910390fd5b6001820154600160e81b900460ff1615612f2c576040516310a0e42f60e01b815260040160405180910390fd5b60018201805460ff60e81b1916600160e81b17905581546001600160401b034216600160c01b026001600160c01b039091161782556040517f294c02ce66be799794a712d72e9926c40a3cb2738a51571523ffe23be2c6fb0190612f939089908990615dc5565b60405180910390a150546001600160401b03169150505b9392505050565b600080612fbc612a77565b6001600160401b038481166000908152600283016020908152604080832081516101408101835281548087168252600160401b8104871694820194909452600160801b8404861692810192909252600160c01b9092048416606082015260018201546001600160a01b0381166080830152600160a01b810490941660a082015293945090929160c0830190600160e01b900460ff16600381111561306257613062615097565b600381111561307357613073615097565b81526001820154600160e81b900460ff161515602080830191909152600283018054604080518285028101850182528281529401939260009084015b8282101561315b5783829060005260206000200180546130ce90615ca7565b80601f01602080910402602001604051908101604052809291908181526020018280546130fa90615ca7565b80156131475780601f1061311c57610100808354040283529160200191613147565b820191906000526020600020905b81548152906001019060200180831161312a57829003601f168201915b5050505050815260200190600101906130af565b50505050815260200160038201805461317390615ca7565b80601f016020809104026020016040519081016040528092919081815260200182805461319f90615ca7565b80156131ec5780601f106131c1576101008083540402835291602001916131ec565b820191906000526020600020905b8154815290600101906020018083116131cf57829003601f168201915b50505091909252505081516001600160401b031660009081526001850160209081526040808320815160e08101835281546001600160a01b038116825260ff600160a01b8204811615159583019590955296975093959394509290840191600160a81b90910416600381111561326457613264615097565b600381111561327557613275615097565b815281546001600160401b03600160b01b9091048116602083015260018301546001600160a01b0381166040840152600160a01b90041660608201526002820180546080909201916132c690615ca7565b80601f01602080910402602001604051908101604052809291908181526020018280546132f290615ca7565b801561333f5780601f106133145761010080835404028352916020019161333f565b820191906000526020600020905b81548152906001019060200180831161332257829003601f168201915b505050919092525050506080015195945050505050565b6000806000613363612a77565b805490915060ff1615613389576040516313d0ff5960e31b815260040160405180910390fd5b600481018054600160401b90046001600160401b03169060086133ab83615dfd565b82546101009290920a6001600160401b0381810219909316918316021790915542166040880152600060608801529150831580156133f6575060808601516001600160a01b03163314155b156134145760405163688731b160e01b815260040160405180910390fd5b600086602001516001600160401b031611801561343b57506134398660200151613e2e565b155b1561345957604051630666176d60e51b815260040160405180910390fd5b60208601516001600160401b0316158015906134a057506020868101516001600160401b031660009081526002830190915260409020600101546001600160a01b03163314155b156134be5760405163688731b160e01b815260040160405180910390fd5b85516001600160401b031660009081526001820160209081526040808320815160e08101835281546001600160a01b038116825260ff600160a01b8204811615159583019590955290939192840191600160a81b90910416600381111561352757613527615097565b600381111561353857613538615097565b815281546001600160401b03600160b01b9091048116602083015260018301546001600160a01b0381166040840152600160a01b900416606082015260028201805460809092019161358990615ca7565b80601f01602080910402602001604051908101604052809291908181526020018280546135b590615ca7565b80156136025780601f106135d757610100808354040283529160200191613602565b820191906000526020600020905b8154815290600101906020018083116135e557829003601f168201915b505050505081525050905061361a8760000151613e5b565b61363757604051631475af0560e31b815260040160405180910390fd5b60608101516001600160401b031615613697576000428860a001516001600160401b03166136659190615e23565b90508082606001516001600160401b0316101561369557604051632a9e0beb60e01b815260040160405180910390fd5b505b6001600160401b0380841660009081526002840160209081526040918290208a518154928c0151938c015160608d01518616600160c01b026001600160c01b03918716600160801b02919091166001600160801b03958716600160401b026001600160801b031990951692871692909217939093179390931692909217178155608089015160018201805460a08c0151909416600160a01b026001600160e01b03199094166001600160a01b03909216919091179290921780835560c08a01518a93909160ff60e01b1916600160e01b83600381111561377957613779615097565b021790555060e0820151600182018054911515600160e81b0260ff60e81b1990921691909117905561010082015180516137bd91600284019160209091019061424b565b5061012082015160038201906137d39082615e7e565b509050507f38b331f00373c8b0f9af5a4273ca1b91e894fec999bfa4ec787e8c90a5c8b05c8387604051613808929190615dc5565b60405180910390a1505093519492505050565b306001600160a01b037f00000000000000000000000000000000000000000000000000000000000000001614806138a257507f00000000000000000000000000000000000000000000000000000000000000006001600160a01b0316613896600080516020615f90833981519152546001600160a01b031690565b6001600160a01b031614155b15611a5b5760405163703e46dd60e11b815260040160405180910390fd5b612727612a45565b816001600160a01b03166352d1902d6040518163ffffffff1660e01b8152600401602060405180830381865afa925050508015613922575060408051601f3d908101601f1916820190925261391f91810190615f3d565b60015b6139415781604051634c9c8ce360e01b8152600401612715919061541a565b600080516020615f90833981519152811461397257604051632a87526960e21b815260048101829052602401612715565b612af38383613e81565b306001600160a01b037f00000000000000000000000000000000000000000000000000000000000000001614611a5b5760405163703e46dd60e11b815260040160405180910390fd5b60006139cf612a77565b805490915060ff16156139f5576040516313d0ff5960e31b815260040160405180910390fd5b6000816003018787604051613a0b929190615c08565b90815260200160405180910390209050613a5a87878080601f016020809104026020016040519081016040528093929190818152602001838380828437600092019190915250613db892505050565b613a77576040516350d3a07b60e11b815260040160405180910390fd5b82158015613a8f575080546001600160a01b03163314155b15613aad5760405163688731b160e01b815260040160405180910390fd5b8054600160a01b90046001600160401b0316600103613adf5760405163ac8606f360e01b815260040160405180910390fd5b805467ffffffffffffffff60a01b1916600160a01b1781556040517f8cdef7ac4262df432ef960b4d902483c56118d54647a70746d99abc05cb970ba90610a22908990899089908990615f56565b600080613b38612a77565b805490915060ff1615613b5e576040516313d0ff5960e31b815260040160405180910390fd5b6004810180546001600160401b0316906000613b7983615dfd565b82546001600160401b039182166101009390930a92830292820219169190911790915542811660a08601528116600090815260018301602090815260409182902086518154928801511515600160a01b026001600160a81b03199093166001600160a01b0390911617919091178082559186015192945085929091829060ff60a81b1916600160a81b836003811115613c1457613c14615097565b02179055506060820151815467ffffffffffffffff60b01b1916600160b01b6001600160401b0392831602178255608083015160018301805460a08601516001600160a01b039093166001600160e01b031990911617600160a01b929093169190910291909117905560c08201516002820190613c919082615e7e565b50506040516001600160401b03841681527fd0f9818d35b9c7d941f89e81a08a7f4761384ae32aeaf4a913b94319a321e7ff915060200160405180910390a150919050565b6000613ce0613d32565b80546001600160a01b038481166001600160a01b031983168117845560405193945091169182907f8be0079c531659141344cd1fd0a4f28419497f9722a3daafe3b4186f6b6457e090600090a3505050565b7f9016d09d72d40fdae2fd8ceac6b6234c7706214fd39c1cd1e609a0528c19930090565b6000806000613d658585613ed7565b5090925090506000816003811115613d7f57613d7f615097565b148015613d9d5750856001600160a01b0316826001600160a01b0316145b80613dae5750613dae868686613f24565b9695505050505050565b600080613dc3612a77565b90508060030183604051613dd79190615f7d565b908152604051908190036020019020546001600160401b03600160a01b9091041615159392505050565b613e09613fff565b611a5b57604051631afcd79f60e31b815260040160405180910390fd5b6126eb613e01565b600080613e39612a77565b600401546001600160401b03600160401b909104811693169290921092915050565b600080613e66612a77565b600401546001600160401b0390811693169290921092915050565b613e8a82614019565b6040516001600160a01b038316907fbc7cd75a20ee27fd9adebab32041f755214dbc6bffa90cc0225b39da2e5c2d3b90600090a2805115613ecf57612af38282614075565b610ee56140eb565b60008060008351604103613f115760208401516040850151606086015160001a613f038882858561410a565b955095509550505050613f1d565b50508151600091506002905b9250925092565b6000806000856001600160a01b03168585604051602401613f46929190615d2b565b60408051601f198184030181529181526020820180516001600160e01b0316630b135d3f60e11b17905251613f7b9190615f7d565b600060405180830381855afa9150503d8060008114613fb6576040519150601f19603f3d011682016040523d82523d6000602084013e613fbb565b606091505b5091509150818015613fcf57506020815110155b8015613dae57508051630b135d3f60e11b90613ff49083016020908101908401615f3d565b149695505050505050565b6000614009612caa565b54600160401b900460ff16919050565b806001600160a01b03163b6000036140465780604051634c9c8ce360e01b8152600401612715919061541a565b600080516020615f9083398151915280546001600160a01b0319166001600160a01b0392909216919091179055565b6060600080846001600160a01b0316846040516140929190615f7d565b600060405180830381855af49150503d80600081146140cd576040519150601f19603f3d011682016040523d82523d6000602084013e6140d2565b606091505b50915091506140e28583836141cf565b95945050505050565b3415611a5b5760405163b398979f60e01b815260040160405180910390fd5b600080806fa2a8918ca85bafe22016d0b997e4df60600160ff1b0384111561413b57506000915060039050826141c5565b604080516000808252602082018084528a905260ff891692820192909252606081018790526080810186905260019060a0016020604051602081039080840390855afa15801561418f573d6000803e3d6000fd5b5050604051601f1901519150506001600160a01b0381166141bb575060009250600191508290506141c5565b9250600091508190505b9450945094915050565b6060826141e4576141df82614222565b612faa565b81511580156141fb57506001600160a01b0384163b155b1561421b5783604051639996b31560e01b8152600401612715919061541a565b5080612faa565b8051156142325780518082602001fd5b604051630a12f52160e11b815260040160405180910390fd5b828054828255906000526020600020908101928215614291579160200282015b8281111561429157825182906142819082615e7e565b509160200191906001019061426b565b5061429d9291506142a1565b5090565b8082111561429d5760006142b582826142be565b506001016142a1565b5080546142ca90615ca7565b6000825580601f106142da575050565b601f01602090049060005260206000209081019061272791905b8082111561429d57600081556001016142f4565b634e487b7160e01b600052604160045260246000fd5b60405160e081016001600160401b038111828210171561434057614340614308565b60405290565b60405161014081016001600160401b038111828210171561434057614340614308565b604051601f8201601f191681016001600160401b038111828210171561439157614391614308565b604052919050565b60006001600160401b038211156143b2576143b2614308565b5060051b60200190565b6001600160a01b038116811461272757600080fd5b80356143dc816143bc565b919050565b803580151581146143dc57600080fd5b8035600481106143dc57600080fd5b80356001600160401b03811681146143dc57600080fd5b600082601f83011261442857600080fd5b81356001600160401b0381111561444157614441614308565b614454601f8201601f1916602001614369565b81815284602083860101111561446957600080fd5b816020850160208301376000918101602001919091529392505050565b600060e0828403121561449857600080fd5b6144a061431e565b90506144ab826143d1565b81526144b9602083016143e1565b60208201526144ca604083016143f1565b60408201526144db60608301614400565b60608201526144ec608083016143d1565b60808201526144fd60a08301614400565b60a082015260c08201356001600160401b0381111561451b57600080fd5b61452784828501614417565b60c08301525092915050565b600061454661454184614399565b614369565b8381529050602080820190600585901b84018681111561456557600080fd5b845b818110156145a05780356001600160401b038111156145865760008081fd5b61459289828901614486565b855250928201928201614567565b505050509392505050565b6000602082840312156145bd57600080fd5b81356001600160401b038111156145d357600080fd5b8201601f810184136145e457600080fd5b6145f384823560208401614533565b949350505050565b60006020828403121561460d57600080fd5b8135612faa816143bc565b60008083601f84011261462a57600080fd5b5081356001600160401b0381111561464157600080fd5b6020830191508360208260051b850101111561465c57600080fd5b9250929050565b60008083601f84011261467557600080fd5b5081356001600160401b0381111561468c57600080fd5b60208301915083602082850101111561465c57600080fd5b6000806000806000606086880312156146bc57600080fd5b85356001600160401b03808211156146d357600080fd5b6146df89838a01614618565b9097509550602088013591506146f4826143bc565b9093506040870135908082111561470a57600080fd5b5061471788828901614663565b969995985093965092949392505050565b6000806040838503121561473b57600080fd5b61474483614400565b915061475260208401614400565b90509250929050565b60008060008060008060006080888a03121561477657600080fd5b61477f88614400565b965060208801356001600160401b038082111561479b57600080fd5b6147a78b838c01614663565b909850965060408a01359150808211156147c057600080fd5b6147cc8b838c01614663565b909650945060608a01359150808211156147e557600080fd5b506147f28a828b01614663565b989b979a50959850939692959293505050565b600061481361454184614399565b8381529050602080820190600585901b84018681111561483257600080fd5b845b818110156145a05780356001600160401b038111156148535760008081fd5b61485f89828901614417565b855250928201928201614834565b600082601f83011261487e57600080fd5b612faa83833560208501614805565b60006020828403121561489f57600080fd5b81356001600160401b038111156148b557600080fd5b6145f38482850161486d565b600082601f8301126148d257600080fd5b813560206148e261454183614399565b82815260059290921b8401810191818101908684111561490157600080fd5b8286015b848110156112955780356001600160401b038111156149245760008081fd5b6149328986838b0101614417565b845250918301918301614905565b6000610140828403121561495357600080fd5b61495b614346565b905061496682614400565b815261497460208301614400565b602082015261498560408301614400565b604082015261499660608301614400565b60608201526149a7608083016143d1565b60808201526149b860a08301614400565b60a08201526149c960c083016143f1565b60c08201526149da60e083016143e1565b60e0820152610100808301356001600160401b03808211156149fb57600080fd5b614a07868387016148c1565b83850152610120925082850135915080821115614a2357600080fd5b50614a3085828601614417565b82840152505092915050565b600082601f830112614a4d57600080fd5b81356020614a5d61454183614399565b82815260059290921b84018101918181019086841115614a7c57600080fd5b8286015b848110156112955780356001600160401b03811115614a9f5760008081fd5b614aad8986838b0101614940565b845250918301918301614a80565b600060208284031215614acd57600080fd5b81356001600160401b03811115614ae357600080fd5b6145f384828501614a3c565b600082601f830112614b0057600080fd5b81356020614b1061454183614399565b8083825260208201915060208460051b870101935086841115614b3257600080fd5b602086015b8481101561129557614b4881614400565b8352918301918301614b37565b60008060408385031215614b6857600080fd5b82356001600160401b0380821115614b7f57600080fd5b614b8b86838701614aef565b93506020850135915080821115614ba157600080fd5b50614bae8582860161486d565b9150509250929050565b600082601f830112614bc957600080fd5b81356020614bd961454183614399565b8083825260208201915060208460051b870101935086841115614bfb57600080fd5b602086015b848110156112955780358352918301918301614c00565b600080600080600060a08688031215614c2f57600080fd5b85356001600160401b0380821115614c4657600080fd5b614c5289838a01614a3c565b96506020880135915080821115614c6857600080fd5b614c7489838a01614bb8565b95506040880135915080821115614c8a57600080fd5b614c9689838a0161486d565b94506060880135915080821115614cac57600080fd5b614cb889838a01614417565b93506080880135915080821115614cce57600080fd5b50614cdb88828901614417565b9150509295509295909350565b60008151808452602080850194506020840160005b83811015614d225781516001600160401b031687529582019590820190600101614cfd565b509495945050505050565b602081526000612faa6020830184614ce8565b60008060408385031215614d5357600080fd5b8235614d5e816143bc565b915060208301356001600160401b03811115614d7957600080fd5b614bae85828601614417565b60005b83811015614da0578181015183820152602001614d88565b50506000910152565b60008151808452614dc1816020860160208601614d85565b601f01601f19169290920160200192915050565b602081526000612faa6020830184614da9565b600060208284031215614dfa57600080fd5b81356001600160401b03811115614e1057600080fd5b6145f384828501614486565b60008060008060008060608789031215614e3557600080fd5b86356001600160401b0380821115614e4c57600080fd5b614e588a838b01614663565b90985096506020890135915080821115614e7157600080fd5b614e7d8a838b01614663565b90965094506040890135915080821115614e9657600080fd5b50614ea389828a01614663565b979a9699509497509295939492505050565b600082601f830112614ec657600080fd5b81356020614ed661454183614399565b8083825260208201915060208460051b870101935086841115614ef857600080fd5b602086015b84811015611295578035614f10816143bc565b8352918301918301614efd565b60008060008060008060c08789031215614f3657600080fd5b86356001600160401b0380821115614f4d57600080fd5b614f598a838b01614a3c565b97506020890135915080821115614f6f57600080fd5b614f7b8a838b01614eb5565b96506040890135915080821115614f9157600080fd5b614f9d8a838b01614bb8565b95506060890135915080821115614fb357600080fd5b614fbf8a838b0161486d565b94506080890135915080821115614fd557600080fd5b614fe18a838b01614417565b935060a0890135915080821115614ff757600080fd5b5061500489828a01614417565b9150509295509295509295565b6000806000806040858703121561502757600080fd5b84356001600160401b038082111561503e57600080fd5b61504a88838901614618565b9096509450602087013591508082111561506357600080fd5b5061507087828801614663565b95989497509550505050565b60006020828403121561508e57600080fd5b612faa82614400565b634e487b7160e01b600052602160045260246000fd5b600481106150cb57634e487b7160e01b600052602160045260246000fd5b9052565b60008282518085526020808601955060208260051b8401016020860160005b8481101561511c57601f1986840301895261510a838351614da9565b988401989250908301906001016150ee565b5090979650505050505050565b80516001600160401b031682526000610140602083015161515560208601826001600160401b03169052565b50604083015161517060408601826001600160401b03169052565b50606083015161518b60608601826001600160401b03169052565b5060808301516151a660808601826001600160a01b03169052565b5060a08301516151c160a08601826001600160401b03169052565b5060c08301516151d460c08601826150ad565b5060e08301516151e860e086018215159052565b50610100808401518282870152615201838701826150cf565b925050506101208084015185830382870152613dae8382614da9565b602081526000612faa6020830184615129565b6000806000806080858703121561524657600080fd5b84356001600160401b038082111561525d57600080fd5b61526988838901614aef565b9550602087013591508082111561527f57600080fd5b61528b8883890161486d565b945060408701359150808211156152a157600080fd5b6152ad88838901614417565b935060608701359150808211156152c357600080fd5b506152d087828801614417565b91505092959194509250565b600080602083850312156152ef57600080fd5b82356001600160401b0381111561530557600080fd5b61531185828601614663565b90969095509350505050565b60008060008060008060c0878903121561533657600080fd5b86356001600160401b038082111561534d57600080fd5b6153598a838b01614940565b975061536760208a016143d1565b965060408901359550606089013591508082111561538457600080fd5b614fbf8a838b01614417565b600060018060a01b0380835116845260208301511515602085015260408301516153bd60408601826150ad565b5060608301516001600160401b0380821660608701528260808601511660808701528060a08601511660a087015250505060c082015160e060c08501526145f360e0850182614da9565b602081526000612faa6020830184615390565b6001600160a01b0391909116815260200190565b60006020828403121561544057600080fd5b81356001600160401b0381111561545657600080fd5b6145f384828501614940565b6000806040838503121561547557600080fd5b82356001600160401b038082111561548c57600080fd5b61549886838701614417565b935060208501359150808211156154ae57600080fd5b50614bae85828601614417565b60008060008060008060c087890312156154d457600080fd5b6154dd87614400565b955060208701356001600160401b03808211156154f957600080fd5b6155058a838b01614417565b965060408901359150615517826143bc565b9094506060880135935060808801359080821115614fd557600080fd5b60008060008060006060868803121561554c57600080fd5b85356001600160401b038082111561556357600080fd5b6146df89838a01614663565b6000610140828403121561558257600080fd5b50919050565b60008060008060008060006080888a0312156155a357600080fd5b87356001600160401b03808211156155ba57600080fd5b6155c68b838c0161556f565b985060208a013591508082111561479b57600080fd5b600080600080600080606087890312156155f557600080fd5b86356001600160401b038082111561560c57600080fd5b6156188a838b01614618565b9098509650602089013591508082111561563157600080fd5b614e7d8a838b01614618565b60006020828403121561564f57600080fd5b81356001600160401b0381111561566557600080fd5b6145f384828501614417565b60006020828403121561568357600080fd5b612faa826143e1565b6000806040838503121561569f57600080fd5b82356001600160401b03808211156156b657600080fd5b614b8b8683870161486d565b600080600080600060a086880312156156da57600080fd5b85356001600160401b03808211156156f157600080fd5b6156fd89838a01614aef565b9650602088013591508082111561571357600080fd5b61571f89838a0161486d565b9550604088013591508082111561573557600080fd5b614c9689838a01614bb8565b6000806000806080858703121561575757600080fd5b84356001600160401b038082111561576e57600080fd5b61526988838901614a3c565b6000806040838503121561578d57600080fd5b614d5e83614400565b60008060008060008060008060a0898b0312156157b257600080fd5b88356001600160401b03808211156157c957600080fd5b6157d58c838d0161556f565b995060208b0135985060408b01359150808211156157f257600080fd5b6157fe8c838d01614663565b909850965060608b013591508082111561581757600080fd5b6158238c838d01614663565b909650945060808b013591508082111561583c57600080fd5b506158498b828c01614663565b999c989b5096995094979396929594505050565b60008060006040848603121561587257600080fd5b83356001600160401b038082111561588957600080fd5b61589587838801614486565b945060208601359150808211156158ab57600080fd5b506158b886828701614663565b9497909650939450505050565b600080600080600060a086880312156158dd57600080fd5b6158e686614400565b945060208601356001600160401b038082111561590257600080fd5b61590e89838a01614417565b9550604088013594506060880135915080821115614cac57600080fd5b60008060008060008060c0878903121561594457600080fd5b86356001600160401b038082111561595b57600080fd5b6159678a838b01614aef565b9750602089013591508082111561597d57600080fd5b6159898a838b0161486d565b9650604089013591508082111561599f57600080fd5b6159ab8a838b01614eb5565b955060608901359150808211156159c157600080fd5b614fbf8a838b01614bb8565b60006040820184835260206040602085015281855180845260608601915060608160051b87010193506020870160005b82811015615a2b57605f19888703018452615a19868351615390565b955092840192908401906001016159fd565b509398975050505050505050565b6000612faa368484614805565b634e487b7160e01b600052603260045260246000fd5b6000808335601e19843603018112615a7357600080fd5b8301803591506001600160401b03821115615a8d57600080fd5b60200191503681900382131561465c57600080fd5b81835281816020850137506000828201602090810191909152601f909101601f19169091010190565b6001600160a01b03861681526001600160401b03858116602083015284166040820152608060608201819052600090615b079083018486615aa2565b979650505050505050565b8281526040602082015260006145f360408301846150cf565b60006040820184835260206040602085015281855180845260608601915060608160051b87010193506020870160005b82811015615a2b57605f19888703018452615b77868351615129565b95509284019290840190600101615b5b565b838152606060208201526000615ba26060830185614ce8565b8281036040840152613dae81856150cf565b6001600160a01b03851681526001600160401b03848116602083015283166040820152608060608201819052600090613dae90830184614da9565b8281526040602082015260006145f36040830184615390565b8183823760009101908152919050565b6001600160a01b0387811682526001600160401b03878116602084015286166040830152841660608201526080810183905260c060a08201819052600090615c6290830184614da9565b98975050505050505050565b6000823560de19833603018112615c8457600080fd5b9190910192915050565b6000612faa368484614533565b6000610c833683614486565b600181811c90821680615cbb57607f821691505b60208210810361558257634e487b7160e01b600052602260045260246000fd5b8281526040602082015260006145f36040830184615129565b838152606060208201526000615d0d6060830185614da9565b8281036040840152613dae8185614da9565b6000610c833683614940565b8281526040602082015260006145f36040830184614da9565b838152606060208201526000615ba260608301856150cf565b8381526001600160401b03831660208201526060604082015260006140e26060830184614da9565b6020815260006145f3602083018486615aa2565b604081526000615dad604083018587615aa2565b905060018060a01b0383166020830152949350505050565b6001600160401b03831681526040602082015260006145f36040830184614da9565b634e487b7160e01b600052601160045260246000fd5b60006001600160401b03808316818103615e1957615e19615de7565b6001019392505050565b81810381811115610c8357610c83615de7565b601f821115612af3576000816000526020600020601f850160051c81016020861015615e5f5750805b601f850160051c820191505b818110156108d057828155600101615e6b565b81516001600160401b03811115615e9757615e97614308565b615eab81615ea58454615ca7565b84615e36565b602080601f831160018114615ee05760008415615ec85750858301515b600019600386901b1c1916600185901b1785556108d0565b600085815260208120601f198616915b82811015615f0f57888601518255948401946001909101908401615ef0565b5085821015615f2d5787850151600019600388901b60f8161c191681555b5050505050600190811b01905550565b600060208284031215615f4f57600080fd5b5051919050565b604081526000615f6a604083018688615aa2565b8281036020840152615b07818587615aa2565b60008251615c84818460208701614d8556fe360894a13ba1a3210667c828492db98dca3e2076cc3735a920a3ca505d382bbca2646970667358221220ca5a5cf9617310f05bf809bb270eb495e88368f4b478e5e419fc42f5025abb4a64736f6c63430008170033",
  "linkReferences": {},
  "deployedLinkReferences": {}
}